:020000040800F2
:1000000098060020E11A0008A9030008AB030008C5
:10001000AF030008B3030008B703000800000000A6
:10002000000000000000000000000000BB0300080A
:10003000BD03000800000000BF030008C103000862
:10004000FB1A0008FB1A0008FB1A0008FB1A00083C
:10005000FB1A0008FB1A0008FB1A0008FB1A00082C
:10006000FB1A0008FB1A0008FB1A0008FB1A00081C
:10007000FB1A0008FB1A0008FB1A0008FB1A00080C
:10008000FB1A0008FB1A0008FB1A0008FB1A0008FC
:10009000FB1A0008FB1A0008FB1A0008FB1A0008EC
:1000A000FB1A0008FB1A0008FB1A0008FB1A0008DC
:1000B000FB1A0008FB1A0008FB1A0008FB1A0008CC
:1000C000FB1A0008FB1A0008FB1A0008FB1A0008BC
:1000D000FB1A0008FB1A0008FB1A0008FB1A0008AC
:1000E000FB1A0008FB1A0008FB1A0008FB1A00089C
:1000F000FB1A0008FB1A0008FB1A0008FB1A00088C
:10010000FB1A0008FB1A0008FB1A0008FB1A00087B
:10011000FB1A0008FB1A0008FB1A0008FB1A00086B
:10012000FB1A0008FB1A0008FB1A0008FB1A00085B
:1001300000F002F800F03AF80AA090E8000C8244BF
:100140008344AAF10107DA4501D100F02FF8AFF29C
:10015000090EBAE80F0013F0010F18BFFB1A43F0A5
:1001600001031847241A0000441A0000103A24BF63
:1001700078C878C1FAD8520724BF30C830C144BF0C
:1001800004680C607047000000230024002500264E
:10019000103A28BF78C1FBD8520728BF30C148BFEA
:1001A0000B6070471FB51FBD10B510BD01F0BDFC41
:1001B0001146FFF7F7FF00F080F901F0DBFC03B414
:1001C000FFF7F2FF03BC00F031FA00000CB500208D
:1001D000019000906B48006840F4803069490860E5
:1001E00000BF6848006800F4003000900198401C8F
:1001F0000190009818B90198B0F5A06FF1D161484D
:10020000006810F4003F02D00120009001E00020BF
:1002100000900098012842D15B48006840F010002F
:10022000594908600846006820F003000860084645
:10023000006840F002000860524840685149486038
:100240000846406848600846406840F4806048605E
:100250000846406820F47C1048600846406840F436
:10026000E81048600846006840F08070086000BFF1
:100270004448006810F0007FFAD04248406820F0FF
:100280000300404948600846406840F0020048606A
:1002900000BF3C48406800F00C000828F9D10CBDB4
:1002A00010B5FFF793FF10BD10B53648006840F059
:1002B0000100344908600846406834490840314923
:1002C000486008460068324908402E4908600846E0
:1002D000006820F4802008600846406820F4FE0092
:1002E00048604FF41F008860FFF7DAFF4FF00060AE
:1002F0002849086010BD10B5002100200022214BC4
:100300005B6803F00C0121B1042906D0082928D12B
:1003100007E0214B214C236027E01F4B1F4C23603B
:1003200023E0184B5B6803F47010164B5B6803F412
:100330008032022303EB904022B9194B4343174C00
:1003400023600DE00F4B5B6813F4003F04D0144BA7
:100350004343124C236003E00F4B43430F4C236095
:1003600003E00D4B0D4C236000BF00BF054B5B68E5
:10037000C3F303130B4CE15C084B1B68CB40074CE9
:10038000236010BD00100240002002400000FFF872
:10039000FFFFF6FE08ED00E000127A0000000020EA
:1003A00000093D0004000020704700BFFEE700BFC9
:1003B000FEE700BFFEE700BFFEE7704770477047EB
:1003C0007047000010B5524800780A2190FBF1F008
:1003D0003030C4B2204600F072F94D4800780A214E
:1003E00090FBF1F201FB12003030C4B2204600F065
:1003F00066F93A2000F063F9454840780A2190FBFD
:10040000F1F03030C4B2204600F059F9404840784D
:100410000A2190FBF1F201FB12003030C4B22046F9
:1004200000F04DF93A2000F04AF9394880780A2165
:1004300090FBF1F03030C4B2204600F040F934486F
:1004400080780A2190FBF1F201FB12003030C4B237
:10045000204600F034F90D2000F031F90A2000F0B8
:100460002EF910BD70B50025002401F0EFF9054606
:100470002848B5FBF0F100FB11544FF46160B4FB68
:10048000F0F0234908704FF46160B4FBF0F100FB19
:1004900011403C21B0FBF1F01D4948704FF4616000
:1004A000B4FBF0F100FB11403C21B0FBF1F201FB89
:1004B000120017498870002070BD00F087F84820AE
:1004C00000F02AF84FF4165000F0BEF8FFF77AFF5C
:1004D000042001F072FAA0F52641A53906D000F0FB
:1004E00001F94AF2A561042001F05BFA0FE0FFF781
:1004F000B9FFFFF767FF4FF47A7000F028F84FF468
:100500007A7000F024F84FF47A7000F020F8EEE7EB
:100510002C000020805101004FF0E021096921F0FA
:1005200004014FF0E0221161C21700EB5272D210A9
:10053000244B1A701946097801EB4102C2EBC11134
:100540004FF6FF7202EAC1011F4A1180704701464F
:100550001D4A12884A434FF0E0235A6100229A61F3
:1005600001221A6100BF4FF0E022106910F0010F64
:1005700002D010F4803FF6D000224FF0E0231A6141
:100580009A61704701460F4A12784A434FF0E023C0
:100590005A6100229A6101221A6100BF4FF0E022E5
:1005A000106910F0010F02D010F4803FF6D0002245
:1005B0004FF0E0231A619A61704700E0401E002866
:1005C000FCD17047140000201600002010B54FF435
:1005D000803000F065FD00F0A2FD0446012C24D11E
:1005E000002000F0E2FDA00200F0E8FD002000F095
:1005F000EEFD022000F0AAF8102000F0BBF84FF446
:10060000E011200400F0B4FD012000F0BDFD00BFAA
:10061000392000F068FD0028FAD0022000F0B7FD74
:1006200000BF00F0BDFD0828FBD110BD014600BF92
:10063000704700BF294A128812F0400FFAD0C2B2A8
:10064000264B1B1D1A80704710B586B00446012149
:1006500044F2040000F06EFE204800F0D3FE4FF498
:100660000070ADF8140003208DF8160018208DF8E6
:10067000170005A91A4800F0A7FB4FF48060ADF8F9
:10068000140004208DF8170005A9154800F09CFB04
:1006900001940020ADF80800ADF80A00ADF80C0098
:1006A000ADF810000C20ADF80E0001A90B4800F0C9
:1006B000ECFE0121094800F074FF06B010BD10B532
:1006C00004462146054800F0D9FF00BF80210348B9
:1006D00001F042F80028F9D010BD000000380140B8
:1006E0000008014010B501214FF0C05000F02FFE6E
:1006F000012001F09AF901F02BF9012000F08AFDA8
:1007000000BF412000F0EFFC0028FAD04FF48070C9
:1007100000F099FD012000F09CFD01F0DBF801F0F4
:10072000D1F80121084601F071F801F0CBF847F645
:10073000FF7001F0A1F801F0C5F8034801F08FF84F
:1007400001F0C0F810BD0000322501000146002074
:10075000FE4A106800F03800084310607047FB49FB
:10076000096821F00801F94A11601146096801433E
:1007700011607047F549096821F01001F34A1160D2
:1007800011460968014311607047F148EF4948601C
:10079000F04848607047EE48EC494860ED484860D2
:1007A0007047EA48006940F08000E84908617047F6
:1007B000E648006940F08000E44908617047042081
:1007C000E249C96811F0010F01D001200EE0DF49B4
:1007D000C96811F0040F01D0022007E0DB49C968A5
:1007E00011F0100F01D0032000E00420704700B585
:1007F00002460423FFF7E3FF034603E0FFF7DFFFB2
:100800000346521E012B01D1002AF7D102B905235C
:10081000184600BD30B5044604254FF43020FFF7DC
:10082000E6FF0546042D17D1C848006940F00200D4
:10083000C649086108464461006940F0400008610B
:100840004FF43020FFF7D3FF0546C048006941F65A
:10085000FD710840BD490861284630BD10B504242B
:100860004FF43020FFF7C3FF0446042C16D1B748DD
:10087000006940F00400B54908610846006940F08D
:10088000400008614FF43020FFF7B1FF0446AF4845
:10089000006941F6FB710840AC490861204610BD73
:1008A00000B502460423FFF78AFF034603E0FFF783
:1008B00086FF0346521E012B01D1002AF7D102B94F
:1008C0000523184600BD10B504244FF43020FFF76F
:1008D000E7FF0446042C16D19C48006940F0040050
:1008E0009A4908610846006940F0400008614FF4E9
:1008F0003020FFF7D5FF04469448006941F6FB71AC
:10090000084092490861204610BD00208F49C969FE
:1009100011F0020F01D0012000E00020704730B537
:10092000A5250424FFF7F1FF00B100254FF4302086
:10093000FFF75DFF0446042C3AD18548834988605F
:10094000844888600846006940F020000861084635
:10095000006940F0400008614FF43020FFF747FF86
:100960000446042C1BD17948006941F6DF71084028
:10097000764908610846006940F010000861764831
:100980000580E002FFF733FF0446052C10D06F48C6
:10099000006941F6EF7108406C49086108E0052CD8
:1009A00006D06A48006941F6EF710840674908615E
:1009B000204630BD78B506460C4604250020009040
:1009C000E802FFF714FF0546042D24D15F480069B3
:1009D00040F001005D4908613480E802FFF707FF3D
:1009E0000546042D10D1B01C0090200C0099088001
:1009F000E802FFF7FCFE05465448006941F6FE7127
:100A000008405249086106E05048006941F6FE710D
:100A100008404E490861284678BD70B504460D4629
:100A20000426F002FFF7E3FE0646042E11D14748E4
:100A3000006940F00100454908612580F002FFF798
:100A4000D6FE06464148006941F6FE7108403F491E
:100A50000861304670BD70B505460E460424E002BC
:100A6000FFF7C5FE0446042C17D139483749886082
:100A7000384888600846006940F0100008612E8000
:100A8000E002FFF7B4FE0446052C06D02F480069AB
:100A900041F6EF7108402D490861204670BD2DE9EF
:100AA000F04304464FF6FF763746B046B14604257C
:100AB000E443E6B2C4F30727C4F307484FEA1469D6
:100AC000E802FFF794FE0546042D49D120481F494E
:100AD0008860204888600846006940F0100008617E
:100AE000FF2E06D01C4808300680E802FFF77FFE84
:100AF0000546042D08D1FF2F06D017480A3007807D
:100B0000E802FFF774FE0546042D0AD1B8F1FF0F85
:100B100007D011480C30A0F80080E802FFF767FE0C
:100B20000546042D0AD1B9F1FF0F07D00A480E304F
:100B3000A0F80090E802FFF75AFE0546052D0FD0F9
:100B40000248006941F6EF71084007E000200240CA
:100B500023016745AB89EFCD00F8FF1F66490861A7
:100B60002846BDE8F08330B5054604244FF4302014
:100B7000FFF73DFE0446042C41D160485E49886081
:100B80005F4888600846006940F020000861084618
:100B9000006940F0400008614FF43020FFF727FE65
:100BA0000446042C22D15448006941F6DF71084004
:100BB000514908610846006940F0100008611DB104
:100BC00000205049088002E0A5204E4908804FF4DB
:100BD0003020FFF70CFE0446052C10D04648006973
:100BE00041F6EF7108404449086108E0052C06D041
:100BF0004148006941F6DF7108403F4908612046DD
:100C000030BDF0B505460E46174604243B483A4928
:100C100088603B488860E002FFF7E9FD0446042C49
:100C200019D13548006940F010003349086147F098
:100C3000F800304328433349891C0880E002FFF75D
:100C4000D6FD0446052C06D02B48006941F6EF710D
:100C50000840294908612046F0BD2748C06980083E
:100C600070472548006A704700202349096811F041
:100C7000200F01D0012000E00020704729B11E4A5A
:100C8000126902431C4B1A6104E01B4A1269824339
:100C9000194B1A61704701460020012908D1164AF4
:100CA000D26912F0010F01D0012008E0002006E017
:100CB000114AD2680A4201D0012000E000207047AA
:100CC0000D49C860704704200B49C96811F0010F35
:100CD00001D001200EE00849C96811F0040F01D0CD
:100CE000022007E00449C96811F0100F01D0032069
:100CF00000E0042070470000002002402301674507
:100D0000AB89EFCD00F8FF1F10B50446CA488442F6
:100D100008D10121042000F027FB0021042000F06D
:100D200023FB46E0C548844208D10121082000F099
:100D30001BFB0021082000F017FB3AE0C04884426A
:100D400008D10121102000F00FFB0021102000F03D
:100D50000BFB2EE0BB48844208D10121202000F08B
:100D600003FB0021202000F0FFFA22E0B648844275
:100D700008D10121402000F0F7FA0021402000F0C6
:100D8000F3FA16E0B148844208D10121802000F036
:100D9000EBFA0021802000F0E7FA0AE0AC48844238
:100DA00007D10121801500F0DFFA0021A01500F025
:100DB000DBFA10BD10B50121084600F0D5FA00217C
:100DC000012000F0D1FA10BD2DE9F04102460025C6
:100DD0000026002000230024002791F803C00CF017
:100DE0000F0591F803C01CF0100F03D091F802C05A
:100DF0004CEA050591F800C0BCF1000F31D0146831
:100E000000202BE04FF0010C0CFA00F3B1F800C009
:100E10000CEA03069E4220D183004FF00F0C0CFA1F
:100E200003F7BC4305FA03FC4CEA040491F803C041
:100E3000BCF1280F06D14FF0010C0CFA00FCC2F8EF
:100E400014C00AE091F803C0BCF1480F05D14FF07F
:100E5000010C0CFA00FCC2F810C0401C0828D1D3C9
:100E60001460B1F800C0BCF1FF0F34DD54680020FD
:100E70002EE000F1080C4FF0010808FA0CF3B1F86D
:100E800000C00CEA03069E4221D183004FF00F0CF4
:100E90000CFA03F7BC4305FA03FC4CEA040491F88E
:100EA00003C0BCF1280F05D100F1080C08FA0CF8BA
:100EB000C2F8148091F803C0BCF1480F07D100F1CB
:100EC000080C4FF0010808FA0CF8C2F81080401C1A
:100ED0000828CED35460BDE8F0814FF6FF71018041
:100EE000022181700421C17070470246002093687E
:100EF0000B4201D0012000E00020704701468868C5
:100F000080B2704702460020D3680B4201D0012016
:100F100000E0002070470146C86880B27047016158
:100F20007047416170470AB1016100E0416170475B
:100F3000C16070474FF480320A43826181618261EF
:100F400082698269704702460020424B18684FF65A
:100F50008073184040EA021008433E4B1860704707
:100F60003D49C8617047F0B50A46002300240021BE
:100F7000002500F00046B6F1004F02D1354EF16970
:100F800001E0344E7168C0F3034583B200F44016AB
:100F9000B6F5401F08D121F070612E4E766826F01C
:100FA00070662C4F7E6012E000F48016B6F5801F4C
:100FB00006D1032606FA05F4A14341F0706106E06C
:100FC000460D360103FA06F6B14341F0706122B1D5
:100FD000460D360103FA06F6314300F00046B6F13D
:100FE000004F02D11B4EF16101E01A4E7160F0BD5D
:100FF00030B500228B071C0F0F2303FA04F2154BA8
:1010000008338C1053F824309343124C08348D105D
:1010100044F8253023468C1053F824308C07240FD5
:1010200000FA04F423430B4C08348D1044F82530A7
:1010300030BD0A490860704700080140000C0140BB
:10104000001001400014014000180140001C014044
:10105000002001400000014000002042DC0020424E
:10106000DD48006840F00100DB4908600846406840
:10107000DA490840D849486008460068D84908401D
:10108000D54908600846006820F4802008600846BA
:10109000406820F4FE0048604FF41F0088607047ED
:1010A000CD49096821F48031CB4A116011460968A5
:1010B00021F480211160B0F5803F03D0B0F5802F7E
:1010C0000ED106E0C449096841F48031C24A11607A
:1010D00007E0C149096841F4A021BF4A116000E05E
:1010E00000BF00BF704710B501460022002300205A
:1010F0004A11012A02D1B84C236806E0022A02D123
:10110000B54C236A01E0B44C636A01F01F0201246C
:1011100094401C4201D0012000E0002010BD38B5F1
:10112000002000900024002500BF3120FFF7DBFFE6
:1011300005460098401C00900098B0F5A06F01D0C3
:10114000002DF2D03120FFF7CEFF08B1012400E0DE
:101150000024204638BD014600209F4A106820F038
:10116000F80040EAC100106070479E49086070476F
:1011700002460020984B586820F47C1042EA010394
:101180001843954B5860704796490866704701466A
:101190000020914A506820F00300084350607047D7
:1011A0008D48406800F00C007047014600208A4AD4
:1011B000506820F0F000084350607047014600205E
:1011C000854A506820F4E06008435060704701464B
:1011D0000020814A506820F4605040EAC10050600D
:1011E000704729B17C4A527A02437B4B5A7204E021
:1011F000794A527A8243784B5A7270477A4908602A
:10120000704701460020744A506820F4404008436B
:10121000506070470021754A11706F4A82F82010A3
:10122000012802D0042808D103E001216F4A11707F
:1012300004E005216D4A117000E000BF00BF704757
:101240006B49086070476449096A0143624A116248
:101250007047674944390860704730B50021002263
:10126000002400235C4D6D6805F00C0121B10429B8
:1012700005D0082923D105E05E4D056022E05D4DD3
:1012800005601FE0544D6D6805F47012524D6D6895
:1012900005F48034022505EB92421CB9564D5543A6
:1012A00005600BE04C4D6D6815F4003F03D0524DC6
:1012B0005543056002E04F4D5543056002E04D4D3A
:1012C000056000BF00BF444D6D6805F0F0010909DD
:1012D0004A4D6B5C0568DD4045603F4D6D6805F427
:1012E000E061090A454D6B5C4568DD4085603A4D1B
:1012F0006D6805F46051C90A404D6B5C4568DD407E
:10130000C560354D6D6805F44041890B3C4D6B5C03
:10131000C568B5FBF3F5056130BD29B12E4A5269A8
:1013200002432D4B5A6104E02B4A526982432A4BF7
:101330005A61704729B1284A92690243264B9A6143
:1013400004E0254A92698243234B9A61704729B190
:10135000214AD2690243204BDA6104E01E4AD26975
:1013600082431D4BDA61704729B11B4AD2680243A0
:10137000194BDA6004E0184AD2688243164BDA60EF
:10138000704729B1144A12690243134B1A6104E0F1
:10139000114A12698243104B1A617047144940394F
:1013A000086070470F49C86470470B49C87170479F
:1013B0000948406A40F0807007494862704701461A
:1013C0000020054A92680A4201D0012000E0002076
:1013D0007047014988727047001002400000FFF812
:1013E000FFFFF6FE00004242D800424220100240B9
:1013F0008004424200127A0000093D0018000020DB
:101400002800002010B50446FB48844209D1012180
:101410008803FFF7A9FF00214FF48040FFF7A4FFE6
:1014200032E0F648844209D101214804FFF7A9FFC0
:1014300000214FF40030FFF7A4FF25E0F04884427C
:1014400009D101218804FFF79CFF00214FF480207F
:10145000FFF797FF18E0EB48844209D10121C80447
:10146000FFF78FFF00214FF40020FFF78AFF0BE00A
:10147000E548844208D101210805FFF782FF0021D9
:101480004FF48010FFF77DFF10BD2DE9F04786B0C7
:1014900005460E460024A24600BFA1460027B0899B
:1014A00000B100BF2F462C8A4CF6FF700440F08834
:1014B00004432C82AC894EF6F3100440B088318985
:1014C0000843718908430443AC81AC8A4FF6FF405E
:1014D0000440B0890443AC8201A8FFF7BEFEC648B1
:1014E000874202D1DDF810A001E0DDF80CA0A88948
:1014F00010F4004F08D00AEBCA0000EB0A10316864
:101500004900B0FBF1F807E00AEBCA0000EB0A1053
:1015100031688900B0FBF1F86420B8FBF0F00401F9
:101520002009642101FB1089A88910F4004F08D01C
:10153000322000EBC900B0FBF1F000F007000443DB
:1015400008E0322000EB09106421B0FBF1F000F05C
:101550000F0004432C8106B0BDE8F0874FF416510C
:10156000016000218180C18001810C214181002125
:101570008181704710B502460020108A4FF2FF03A8
:1015800018400B884C8823438C882343CC88234302
:101590001843108210BD0021018041808180C180EC
:1015A000704721B1828942F40052828104E082892D
:1015B0004DF6FF731A4082817047F0B50346002450
:1015C000002600250020A1F510676A3F00D100BF6A
:1015D0001846C1F3421401F01F06012707FA06F569
:1015E000012C01D10C3004E0022C01D1103000E0BC
:1015F00014301AB107682F43076002E00768AF4351
:101600000760F0BD1AB1838A0B43838202E0838AAC
:101610008B4383827047028A4FF6F0731A4002822E
:10162000028A0A430282704782894FF2FF731A408E
:10163000828182890A438281704721B1828942F086
:101640000202828104E082894FF6FD731A40828192
:101650007047028A4FF6DF731A400282028A0A43F9
:101660000282704721B1028A42F48042028204E081
:10167000028A4BF6FF731A4002827047C1F30802D8
:101680008280704701468888C0F3080070478189CE
:1016900041F0010181817047028BD2B20283028B3B
:1016A00042EA012202837047028B02F47F420283E6
:1016B000028B0A430283704721B1828A42F02002E2
:1016C000828204E0828A4FF6DF731A40828270477A
:1016D00021B1828A42F01002828204E0828A4FF6AF
:1016E000EF731A408282704721B1828A42F0080269
:1016F000828204E0828A4FF6F7731A408282704732
:1017000021B1828942F40042828103E08289C2F3DE
:101710000E028281704721B1828A42F40062828285
:1017200004E0828A4FF2FF731A4082827047828AF5
:101730004FF6FB731A408282828A0A438282704784
:1017400021B1828A42F00202828204E0828A4FF64C
:10175000FD731A408282704702460020B1F5007F77
:1017600000D100BF13880B4201D0012000E000200F
:10177000704701F40072B2F5007F00D100BFCA4388
:101780000280704770B50246002400230025002027
:10179000A1F510666A3E00D100BFC1F3421501F009
:1017A0001F03012606FA03F3012D02D19689334067
:1017B00006E0022D02D1168A334001E0968A3340BA
:1017C0000C12012606FA04F41688344013B10CB149
:1017D000012000E0002070BD10B500220023A1F51B
:1017E00010646A3C00D100BF0A1201249440A3B2E5
:1017F000DC43048010BD000000380140004400407C
:1018000000480040004C00400050004029B14F4AC1
:10181000128802434D4B1A8004E04C4A12888243DE
:101820004A4B1A8070474948001D008840F010005C
:101830004649091D088070474448001D00884FF63E
:10184000EF7108404149091D0880704700213F4859
:101850001C300188001F008841EA0040704700B535
:101860000246FFF7E0FF100C384918310880091DC7
:101870000A80FFF7E1FF00BD00B50246FFF7D3FF86
:10188000C2F30340314908310880091D0A80FFF77F
:10189000D3FF00BD00B50246FFF7C5FF100C2B4972
:1018A00020310880091D0A80FFF7C6FF00BD002017
:1018B0002649103109880907080B24491431098881
:1018C0000843704700BF2148001D008810F0200F1A
:1018D000F9D070471D48001D00884FF6F771084089
:1018E0001A49091D088000BF1848001D008810F023
:1018F000080FF9D0704701460020144A121D1288C3
:101900000A4201D0012000E0002070470F49091D64
:10191000098881430D4A121D11807047014600203D
:101920000A4A121D12880A40D0B2084A12880A4296
:1019300002D008B1012000E0002070470349091DD2
:1019400009888143014A121D118070470028004018
:1019500010B50120FFF722FD0020FFF71FFD10BD8D
:101960002A49086070472949091F086070472749BC
:1019700084310860704701460020254A10884FF6E0
:101980007F4210400843224A1080704701460020E1
:101990001F4A10884FF68072104008431C4A10807E
:1019A000704708B500220092194A2C3A0092009A1A
:1019B00002440092009A116008BD08B5014600205B
:1019C000009013482C38009000980844009000982C
:1019D000008808BD0D489C300068C0B270470C48B4
:1019E0000830008840F0010009490831088070473C
:1019F0000648A0300068C0B270470548083000882B
:101A000040F00200024908310880704704860D4208
:101A10002C6C004010B501210807FFF7B2FC002133
:101A20004FF08050FFF7ADFC10BD294908627047A8
:101A300027490861704701460020264A106820F0B7
:101A4000E00008431060704723490860704710B5F4
:101A5000024600201F4B186820F003001043186056
:101A60001E4B1B6843F004031C4C2360012901D169
:101A700030BF00E020BF194B1B6823F00403174C54
:101A8000236010BD1348006840F00400114908604D
:101A90000846006840F0020008601048006840F006
:101AA00004000E49086000BF00BF30BF7047014608
:101AB0000020084A52680A4201D0012000E00020BC
:101AC00070470449096841EA8001024A1160704781
:101AD00000000E4200700040A0000E4210ED00E039
:101AE0000948804709480047FEE7FEE7FEE7FEE7B2
:101AF000FEE7FEE7FEE7FEE7FEE7FEE704480549EE
:101B0000054A064B70470000A90200083101000891
:101B100098000020980600209802002098020020DB
:101B200070477047704770477047754600F028F857
:101B3000AE4605006946534620F00700854618B0BA
:101B400020B5FFF7DBFFBDE820404FF000064FF067
:101B500000074FF000084FF0000B21F00701AC46E2
:101B6000ACE8C009ACE8C009ACE8C009ACE8C00901
:101B70008D4670470446AFF300802046FEF71FFBFA
:101B80000048704738000020A81B00080000002013
:101B90002C0000006C010008D41B00082C00002061
:101BA0006C0600008801000800A24A040000000042
:101BB00000000000010203040607080900000000FD
:101BC00000000000010203040102030406070809E3
:041BD00002040608FD
:0400000508001AE1F4
:00000001FF
