:020000040800F2
:10000000D8200020552A0008F1030008F303000857
:10001000F7030008FB030008FF03000800000000CE
:1000200000000000000000000000000003040008C1
:100030000504000800000000070400080904000887
:100040006F2A00086F2A00086F2A00086F2A00082C
:100050006F2A00086F2A0008270D00086F2A000881
:100060006F2A00086F2A00086F2A00086F2A00080C
:100070006F2A00086F2A00086F2A00086F2A0008FC
:100080006F2A00086F2A00086F2A00086F2A0008EC
:100090006F2A00086F2A00086F2A00086F2A0008DC
:1000A0006F2A00086F2A00086F2A00086F2A0008CC
:1000B0006F2A00086F2A00086F2A00086F2A0008BC
:1000C0006F2A00086F2A00086F2A00086F2A0008AC
:1000D0006F2A00086F2A00086F2A00086F2A00089C
:1000E0006F2A00086F2A00086F2A00086F2A00088C
:1000F0006F2A00086F2A00086F2A00086F2A00087C
:100100006F2A00086F2A00086F2A00086F2A00086B
:100110006F2A00086F2A00086F2A00086F2A00085B
:100120006F2A00086F2A00086F2A00086F2A00084B
:1001300000F002F800F05EF80AA090E8000C82449B
:100140008344AAF10107DA4501D100F053F8AFF278
:10015000090EBAE80F0013F0010F18BFFB1A43F0A5
:1001600001031847783700009837000010F8013B6A
:100170000A4413F0030408BF10F8014B1D1108BF17
:1001800010F8015B641E05D010F8016B641E01F8C5
:10019000016BF9D1002D15D010F8014B03F00C03C1
:1001A0000C2BA1EB04040ABF10F8013BA4EB831451
:1001B000A4EB032405F1010314F8016B5B1E01F8A5
:1001C000016BF9D5914238BF10F8013BD1D370478C
:1001D0000023002400250026103A28BF78C1FBD850
:1001E000520728BF30C148BF0B6070471FB51FBD05
:1001F00010B510BD02F051FC1146FFF7F7FF00F0FB
:1002000095F902F06FFC03B4FFF7F2FF03BC02F0B4
:1002100073FC00000CB50020019000906B48006852
:1002200040F480306949086000BF6848006800F405
:10023000003000900198401C0190009818B9019876
:10024000B0F5A06FF1D16148006810F4003F02D012
:100250000120009001E0002000900098012842D188
:100260005B48006840F01000594908600846006883
:1002700020F0030008600846006840F002000860B3
:1002800052484068514948600846406848600846FE
:10029000406840F4806048600846406820F47C1064
:1002A00048600846406840F4E81048600846006826
:1002B00040F08070086000BF4448006810F0007F84
:1002C000FAD04248406820F00300404948600846A0
:1002D000406840F00200486000BF3C48406800F0C1
:1002E0000C000828F9D10CBD10B5FFF793FF10BD25
:1002F00010B53648006840F00100344908600846EF
:10030000406834490840314948600846006832492D
:1003100008402E4908600846006820F480200860E4
:100320000846406820F4FE0048604FF41F008860D3
:10033000FFF7DAFF4FF000602849086010BD10B5E4
:10034000002100200022214B5B6803F00C0121B149
:10035000042906D0082928D107E0214B214C23602D
:1003600027E01F4B1F4C236023E0184B5B6803F40E
:100370007010164B5B6803F48032022303EB90404D
:1003800022B9194B4343174C23600DE00F4B5B68B8
:1003900013F4003F04D0144B4343124C236003E09A
:1003A0000F4B43430F4C236003E00D4B0D4C236078
:1003B00000BF00BF054B5B68C3F303130B4CE15C4C
:1003C000084B1B68CB40074C236010BD0010024057
:1003D000002002400000FFF8FFFFF6FE08ED00E0FD
:1003E00000127A000000002000093D0004000020F7
:1003F000704700BFFEE700BFFEE700BFFEE700BF9B
:10040000FEE77047704770477047000010B50B2239
:100410000021162000F0C3FA0C2200212C2000F04D
:10042000BEFA0D220021422000F0B9FA0E2200216E
:10043000582000F0B4FA00220221162000F0AFFA92
:10044000012202212C2000F0AAFA022211464220A9
:1004500000F0A5FA03220221582000F0A0FA04229D
:100460001146212000F09BFA05220421372000F0DC
:1004700096FA062204214D2000F091FA2F2206213F
:10048000172000F08CFA4FF4167000F0F4F82F22C9
:100490000621282000F083FA4FF4167000F0EBF8E4
:1004A0002F220621392000F07AFA4FF4167000F05E
:1004B000E2F82F2206214A2000F071FA4FF416705C
:1004C00000F0D9F857A206215C2000F04DFA4FF455
:1004D000167000F0D0F800F0A5F95122002102209A
:1004E00000F05DFA41220021102000F058FA42226B
:1004F0000021232000F053FA22220021362000F0B0
:100500004EFA23220021492000F049FA412203211A
:10051000102000F044FA42220321232000F03FFA89
:1005200041A20321322000F01FFA10BD00F0E2F8D2
:10053000482000F085F800F0ECFB00F09AFA00F09B
:1005400071F9FFF763FF6CE000F0BFFB37493848F3
:10055000006802F0EBFC044602F0CCFC4FF47A7128
:1005600090FBF1F00A2190FBF1F201FB1200303018
:10057000304908700A4603213C2000F0F5F92B4968
:100580002B48006802F0D2FC044602F0B3FC642160
:1005900090FBF1F00A2190FBF1F201FB12003030E8
:1005A000244908700A460321462000F0DDF91F495E
:1005B0001F48006802F0BAFC044602F09BFC0A21C6
:1005C00090FBF1F090FBF1F201FB12003030194981
:1005D00008700A460321502000F0C6F916A2032134
:1005E0005A2000F0C1F911491148006802F09EFC40
:1005F000044602F07FFC0A2190FBF1F201FB12009D
:1006000030300C4908700A460321602000F0ACF934
:100610000AA203216A2000F0A7F94FF4C87000F085
:100620002AF891E74F4B21003A00000000002041DA
:1006300018000020150000202E000000636D00004F
:100640004FF0E021096921F004014FF0E02211612F
:10065000C21700EB5272D210244B1A701946097857
:1006600001EB4102C2EBC1114FF6FF7202EAC10178
:100670001F4A1180704701461D4A12884A434FF0B5
:10068000E0235A6100229A6101221A6100BF4FF0F3
:10069000E022106910F0010F02D010F4803FF6D074
:1006A00000224FF0E0231A619A61704701460F4A19
:1006B00012784A434FF0E0235A6100229A610122E6
:1006C0001A6100BF4FF0E022106910F0010F02D054
:1006D00010F4803FF6D000224FF0E0231A619A61B7
:1006E000704700E0401E0028FCD170471C0000202D
:1006F0001E00002010B54FF4803000F0EFFF01F035
:100700002CF80446012C24D1002001F06CF8A00242
:1007100001F072F8002001F078F8022000F034FBBC
:10072000102000F045FB4FF4E011200401F03EF8EA
:10073000012001F047F800BF392000F0F2FF002847
:10074000FAD0022001F041F800BF01F047F8082874
:10075000FBD110BD70B504460E462EB14FF40051CA
:10076000FE4800F0FAFE04E04FF40051FB4800F0B0
:10077000F6FE00251BE04FF48071F94800F0EFFE13
:1007800014F0800F05D04FF40041F44800F0E5FE6E
:1007900004E04FF40041F14800F0E1FE4FF48071B5
:1007A000EF4800F0DAFE6006040E681CC5B2082DA2
:1007B000E1DB4FF40051E94800F0CFFE70BD70B5A9
:1007C00004460D4605F1B001C8B20021FFF7C2FF93
:1007D000102141EA14100021FFF7BCFF04F00F01C3
:1007E00041F001000021FFF7B5FF70BD10B50021F9
:1007F0008D20FFF7AFFF00211420FFF7ABFF002192
:10080000AF20FFF7A7FF10BD10B500218D20FFF727
:10081000A1FF00211020FFF79DFF0021AE20FFF770
:1008200099FF10BD70B5002419E004F1B001C8B201
:100830000021FFF78FFF00210846FFF78BFF002103
:100840001020FFF787FF002505E001210020FFF7BA
:1008500081FF681CC5B2802DF7DB601CC4B2082C78
:10086000E3DB70BD2DE9F04107460E4690460025BA
:100870000024A8F12000C5B27F2F02DD0027B01CA4
:10088000C6B231463846FFF79AFF002408E004EB71
:100890000511B44A505C0121FFF75CFF601CC4B233
:1008A000082CF4DB701CC1B23846FFF788FF002427
:1008B00009E004EB05110831AA4A505C0121FFF759
:1008C00049FF601CC4B2082CF3DBBDE8F08110B511
:1008D0000246012000E050430B00A1F10104E1B207
:1008E000F9D110BD2DE9FF5F074691461D460E9ECA
:1008F0004FF0000A002433E0281B401EC1B20A203A
:10090000FFF7E5FFB9FBF0F00A21B0FBF1F201FBC4
:100910001208BAF1000F13D1681EA04210DDB8F121
:10092000000F0BD1B34606EBDB71491001FB0471DC
:10093000C8B220220199FFF795FF0FE04FF0010A9E
:10094000B34606EBDB71491001FB0471C8B208F134
:100950003001CAB20199FFF785FF00BF601CC4B225
:10096000AC42C9DBBDE8FF9F2DE9F04104460F46CC
:10097000154600260EE0AA5D39462046FFF772FFB5
:1009800004F10800C4B2782C02DD0024B81CC7B200
:10099000701CC6B2A85D0028EDD1BDE8F0812DE93C
:1009A000F04180460E461546002731464046FFF787
:1009B00006FF00240AE06C4A02EB8511085D012164
:1009C000FFF7C8FE781CC7B2601CC4B2102CF2DB63
:1009D000701CC1B24046FFF7F2FE00240CE0690033
:1009E000491C614A02EB4111085D0121FFF7B2FE8B
:1009F000781CC7B2601CC4B2102CF0DBBDE8F081DB
:100A00002DE9F05F06460F4690461C46DDF828A00B
:100A10004FF0000BE11704EB5171C910B4EBC101A9
:100A200005D12046E11704EB5171CD1005E02046B9
:100A3000E11704EB5171C9104D1C3D4615E02946E4
:100A40003046FFF7BCFEB1460BE059460BF1010BF7
:100A50001AF801000121FFF77DFE09F1010000F005
:100A6000FF09C145F1DB681CC5B2A542E7DBBDE863
:100A7000F09F08B501210C2000F07AFF4FF4807040
:100A8000ADF8000010208DF8030001208DF8020061
:100A90006946334800F0B6FC4FF46040ADF8000002
:100AA00010208DF8030001208DF8020069462B48C4
:100AB00000F0A8FC4FF48071294800F04EFD4FF47F
:100AC0006041264800F049FD4FF48041234800F082
:100AD00044FD6420FFF7CFFD4FF480411F4800F034
:100AE0003EFDC820FFF7C7FD4FF480411B4800F0D2
:100AF00034FD0021AE20FFF72DFE00210846FFF750
:100B000029FE00211020FFF725FE00214020FFF7DD
:100B100021FE00218120FFF71DFE0021CF20FFF7DD
:100B200019FE0021A120FFF715FE0021C820FFF7C4
:100B300011FE0021A620FFF70DFE0021A820FFF7DF
:100B400009FE00213F20FFF705FE0021D320FFF71B
:100B500001FE00210846FFF7FDFD07E0000C014003
:100B600000080140EC320008200000200021D520C0
:100B7000FFF7F0FD00218020FFF7ECFD0021D920D8
:100B8000FFF7E8FD0021F120FFF7E4FD0021DA2066
:100B9000FFF7E0FD00211220FFF7DCFD0021DB2044
:100BA000FFF7D8FD00214020FFF7D4FD00212020D1
:100BB000FFF7D0FD00210220FFF7CCFD00218D20A2
:100BC000FFF7C8FD00211420FFF7C4FD0021A42079
:100BD000FFF7C0FD0021A620FFF7BCFD0021AF20DC
:100BE000FFF7B8FD0021AF20FFF7B4FDFFF71AFEB5
:100BF00000210846FFF7E3FD08BD000008B501210C
:100C00000D2000F0B5FE8020ADF8000010208DF81A
:100C1000030003208DF802006946554800F0F2FBFE
:100C20000120ADF8000028208DF8030069465148E6
:100C300000F0E8FB08BD1CB5012001F002FF002117
:100C4000012000F0F3FC0120009000208DF804004A
:100C500008208DF8050001208DF80600684601F097
:100C600079FE1CBD0EB50121022000F08EFE424827
:100C700000F054FF41F28730ADF8040041F61F4008
:100C8000ADF800000020ADF80600ADF8020069469E
:100C9000394801F017F80121374801F06FFC0122B3
:100CA0004121354801F085FB0EBD08B506208DF8C1
:100CB000000002208DF801008DF8020001208DF85F
:100CC0000300684600F0C1FE08BD2DE9F041802117
:100CD000274800F042FC1420FFF7E8FC802124485C
:100CE00000F03DFC0A20FFF7C6FC244909884FF4B8
:100CF000AA7201FB02F002F091F806460022204B96
:100D000001F034FF044601F0FFFE1E490860BDE813
:100D1000F08110B5FFF772FFFFF78DFFFFF7A2FF1D
:100D2000FFF7C3FF10BD10B50A20FFF7BFFC01207D
:100D300001F076FED0B100210F4801F0B3FD012192
:100D40000D4801F01BFB00BF01210A4800F0EBFB3E
:100D50000028F9D10021084801F010FB064801F0F5
:100D6000C4FD06490880012001F06BFE10BD0000A3
:100D700000080140000C014000040040601A0020FF
:100D8000000069401800002001460020FE4A10685B
:100D900000F03800084310607047FB49096821F0F3
:100DA0000801F94A11601146096801431160704752
:100DB000F549096821F01001F34A116011460968EC
:100DC000014311607047F148EF494860F0484860BE
:100DD0007047EE48EC494860ED4848607047EA4883
:100DE000006940F08000E84908617047E648006902
:100DF00040F08000E449086170470420E249C96876
:100E000011F0010F01D001200EE0DF49C96811F097
:100E1000040F01D0022007E0DB49C96811F0100F70
:100E200001D0032000E00420704700B502460423EF
:100E3000FFF7E3FF034603E0FFF7DFFF0346521E21
:100E4000012B01D1002AF7D102B90523184600BDB4
:100E500030B5044604254FF43020FFF7E6FF054681
:100E6000042D17D1C848006940F00200C649086146
:100E700008464461006940F0400008614FF43020AA
:100E8000FFF7D3FF0546C048006941F6FD710840F1
:100E9000BD490861284630BD10B504244FF4302008
:100EA000FFF7C3FF0446042C16D1B748006940F091
:100EB0000400B54908610846006940F04000086137
:100EC0004FF43020FFF7B1FF0446AF48006941F608
:100ED000FB710840AC490861204610BD00B50246D0
:100EE0000423FFF78AFF034603E0FFF786FF03466C
:100EF000521E012B01D1002AF7D102B90523184651
:100F000000BD10B504244FF43020FFF7E7FF04467E
:100F1000042C16D19C48006940F004009A490861ED
:100F20000846006940F0400008614FF43020FFF7A8
:100F3000D5FF04469448006941F6FB710840924988
:100F40000861204610BD00208F49C96911F0020FC9
:100F500001D0012000E00020704730B5A525042411
:100F6000FFF7F1FF00B100254FF43020FFF75DFFE0
:100F70000446042C3AD185488349886084488860B7
:100F80000846006940F0200008610846006940F00A
:100F9000400008614FF43020FFF747FF0446042C5F
:100FA0001BD17948006941F6DF7108407649086134
:100FB0000846006940F01000086176480580E002AC
:100FC000FFF733FF0446052C10D06F48006941F647
:100FD000EF7108406C49086108E0052C06D06A48AA
:100FE000006941F6EF71084067490861204630BD4D
:100FF00078B506460C46042500200090E802FFF76D
:1010000014FF0546042D24D15F48006940F001001B
:101010005D4908613480E802FFF707FF0546042DAB
:1010200010D1B01C0090200C00990880E802FFF756
:10103000FCFE05465448006941F6FE7108405249DD
:10104000086106E05048006941F6FE7108404E49CB
:101050000861284678BD70B504460D460426F002A6
:10106000FFF7E3FE0646042E11D14748006940F021
:101070000100454908612580F002FFF7D6FE0646CB
:101080004148006941F6FE7108403F490861304619
:1010900070BD70B505460E460424E002FFF7C5FE9C
:1010A0000446042C17D1394837498860384888608D
:1010B0000846006940F0100008612E80E002FFF74A
:1010C000B4FE0446052C06D02F48006941F6EF71A6
:1010D00008402D490861204670BD2DE9F0430446C3
:1010E0004FF6FF763746B046B1460425E443E6B2F4
:1010F000C4F30727C4F307484FEA1469E802FFF76F
:1011000094FE0546042D49D120481F498860204897
:1011100088600846006940F010000861FF2E06D084
:101120001C4808300680E802FFF77FFE0546042DC4
:1011300008D1FF2F06D017480A300780E802FFF7D2
:1011400074FE0546042D0AD1B8F1FF0F07D01148EF
:101150000C30A0F80080E802FFF767FE0546042D7A
:101160000AD1B9F1FF0F07D00A480E30A0F800905D
:10117000E802FFF75AFE0546052D0FD00248006928
:1011800041F6EF71084007E0002002402301674567
:10119000AB89EFCD00F8FF1F664908612846BDE81E
:1011A000F08330B5054604244FF43020FFF73DFEB0
:1011B0000446042C41D160485E4988605F488860DD
:1011C0000846006940F0200008610846006940F0C8
:1011D000400008614FF43020FFF727FE0446042C3E
:1011E00022D15448006941F6DF7108405149086135
:1011F0000846006940F0100008611DB10020504908
:10120000088002E0A5204E4908804FF43020FFF707
:101210000CFE0446052C10D04648006941F6EF71DB
:1012200008404449086108E0052C06D0414800699F
:1012300041F6DF7108403F490861204630BDF0B5F6
:1012400005460E46174604243B483A4988603B4809
:101250008860E002FFF7E9FD0446042C19D1354807
:10126000006940F010003349086147F0F80030434E
:1012700028433349891C0880E002FFF7D6FD044665
:10128000052C06D02B48006941F6EF71084029492A
:1012900008612046F0BD2748C0698008704725488E
:1012A000006A704700202349096811F0200F01D01F
:1012B000012000E00020704729B11E4A1269024354
:1012C0001C4B1A6104E01B4A12698243194B1A61D4
:1012D000704701460020012908D1164AD26912F050
:1012E000010F01D0012008E0002006E0114AD26879
:1012F0000A4201D0012000E0002070470D49C8607B
:10130000704704200B49C96811F0010F01D001207A
:101310000EE00849C96811F0040F01D0022007E06F
:101320000449C96811F0100F01D0032000E0042027
:10133000704700000020024023016745AB89EFCDD4
:1013400000F8FF1F10B50446CA48844208D10121A5
:10135000042000F027FB0021042000F023FB46E0DE
:10136000C548844208D10121082000F01BFB002160
:10137000082000F017FB3AE0C048844208D1012160
:10138000102000F00FFB0021102000F00BFB2EE0DE
:10139000BB48844208D10121202000F003FB00213A
:1013A000202000F0FFFA22E0B648844208D1012153
:1013B000402000F0F7FA0021402000F0F3FA16E098
:1013C000B148844208D10121802000F0EBFA0021CD
:1013D000802000F0E7FA0AE0AC48844207D10121FE
:1013E000801500F0DFFA0021A01500F0DBFA10BD37
:1013F00010B50121084600F0D5FA0021012000F0C7
:10140000D1FA10BD2DE9F04102460025002600204A
:1014100000230024002791F803C00CF00F0591F879
:1014200003C01CF0100F03D091F802C04CEA050570
:1014300091F800C0BCF1000F31D0146800202BE0FF
:101440004FF0010C0CFA00F3B1F800C00CEA0306EF
:101450009E4220D183004FF00F0C0CFA03F7BC43DF
:1014600005FA03FC4CEA040491F803C0BCF1280F10
:1014700006D14FF0010C0CFA00FCC2F814C00AE0CF
:1014800091F803C0BCF1480F05D14FF0010C0CFAE4
:1014900000FCC2F810C0401C0828D1D31460B1F879
:1014A00000C0BCF1FF0F34DD546800202EE000F1D5
:1014B000080C4FF0010808FA0CF3B1F800C00CEA70
:1014C00003069E4221D183004FF00F0C0CFA03F764
:1014D000BC4305FA03FC4CEA040491F803C0BCF1D8
:1014E000280F05D100F1080C08FA0CF8C2F8148096
:1014F00091F803C0BCF1480F07D100F1080C4FF080
:10150000010808FA0CF8C2F81080401C0828CED355
:101510005460BDE8F0814FF6FF71018002218170B7
:101520000421C17070470246002093680B4201D02D
:10153000012000E0002070470146886880B27047B3
:1015400002460020D3680B4201D0012000E00020B9
:1015500070470146C86880B27047016170474161B9
:1015600070470AB1016100E041617047C160704796
:101570004FF480320A4382618161826182698269AB
:10158000704702460020424B18684FF6807318409F
:1015900040EA021008433E4B186070473D49C8615D
:1015A0007047F0B50A46002300240021002500F012
:1015B0000046B6F1004F02D1354EF16901E0344EDC
:1015C0007168C0F3034583B200F44016B6F5401FBE
:1015D00008D121F070612E4E766826F070662C4F8F
:1015E0007E6012E000F48016B6F5801F06D1032657
:1015F00006FA05F4A14341F0706106E0460D36019C
:1016000003FA06F6B14341F0706122B1460D36018E
:1016100003FA06F6314300F00046B6F1004F02D15E
:101620001B4EF16101E01A4E7160F0BD30B5002231
:101630008B071C0F0F2303FA04F2154B08338C1091
:1016400053F824309343124C08348D1044F825305D
:1016500023468C1053F824308C07240F00FA04F42E
:1016600023430B4C08348D1044F8253030BD0A4913
:101670000860704700080140000C01400010014064
:101680000014014000180140001C014000200140EE
:101690000000014000002042DC002042DD480068DC
:1016A00040F00100DB49086008464068DA4908401C
:1016B000D849486008460068D8490840D5490860BC
:1016C0000846006820F4802008600846406820F43E
:1016D000FE0048604FF41F0088607047CD490968DC
:1016E00021F48031CB4A11601146096821F4802130
:1016F0001160B0F5803F03D0B0F5802F0ED106E029
:10170000C449096841F48031C24A116007E0C14907
:10171000096841F4A021BF4A116000E000BF00BF8A
:10172000704710B501460022002300204A11012A0B
:1017300002D1B84C236806E0022A02D1B54C236AD4
:1017400001E0B44C636A01F01F02012494401C4282
:1017500001D0012000E0002010BD38B5002000902D
:101760000024002500BF3120FFF7DBFF054600986D
:10177000401C00900098B0F5A06F01D0002DF2D071
:101780003120FFF7CEFF08B1012400E000242046FD
:1017900038BD014600209F4A106820F0F80040EA5A
:1017A000C100106070479E490860704702460020E3
:1017B000984B586820F47C1042EA01031843954B7B
:1017C0005860704796490866704701460020914A64
:1017D000506820F003000843506070478D4840680F
:1017E00000F00C007047014600208A4A506820F043
:1017F000F00008435060704701460020854A506859
:1018000020F4E06008435060704701460020814AA0
:10181000506820F4605040EAC1005060704729B120
:101820007C4A527A02437B4B5A7204E0794A527ADC
:101830008243784B5A7270477A4908607047014674
:101840000020744A506820F44040084350607047BC
:101850000021754A11706F4A82F82010012802D0C9
:10186000042808D103E001216F4A117004E005212A
:101870006D4A117000E000BF00BF70476B490860FF
:1018800070476449096A0143624A116270476749B7
:1018900044390860704730B500210022002400233D
:1018A0005C4D6D6805F00C0121B1042905D00829B3
:1018B00023D105E05E4D056022E05D4D05601FE02F
:1018C000544D6D6805F47012524D6D6805F4803406
:1018D000022505EB92421CB9564D554305600BE0BD
:1018E0004C4D6D6815F4003F03D0524D55430560D3
:1018F00002E04F4D5543056002E04D4D056000BFCD
:1019000000BF444D6D6805F0F00109094A4D6B5C5C
:101910000568DD4045603F4D6D6805F4E061090AEA
:10192000454D6B5C4568DD4085603A4D6D6805F45A
:101930006051C90A404D6B5C4568DD40C560354D5E
:101940006D6805F44041890B3C4D6B5CC568B5FB87
:10195000F3F5056130BD29B12E4A526902432D4B82
:101960005A6104E02B4A526982432A4B5A617047FC
:1019700029B1284A92690243264B9A6104E0254A1C
:1019800092698243234B9A61704729B1214AD269F7
:101990000243204BDA6104E01E4AD26982431D4BA8
:1019A000DA61704729B11B4AD2680243194BDA60E9
:1019B00004E0184AD2688243164BDA60704729B1B6
:1019C000144A12690243134B1A6104E0114A126966
:1019D0008243104B1A6170471449403908607047C0
:1019E0000F49C86470470B49C87170470948406A7D
:1019F00040F0807007494862704701460020054A60
:101A000092680A4201D0012000E00020704701499D
:101A100088727047001002400000FFF8FFFFF6FEDA
:101A200000004242D800424220100240800442425C
:101A300000127A0000093D00621A0020721A00208C
:101A400031490143314A1160704770B500210023CC
:101A50000F22C4780CB32D4C246804F4E064C4F560
:101A6000E064210AC1F10403CA40447804FA03F196
:101A70008478144021430901254C0678A155047847
:101A800004F01F050124AC4005786D114FF0E026ED
:101A900006EB8505C5F8004109E0047804F01F0550
:101AA0000124AC401B4D0678761145F8264070BDE8
:101AB000194A0A400243154B1B1F1A60704739B17F
:101AC000124A121D12680243104B1B1D1A6006E0D9
:101AD0000E4A121D126882430C4B1B1D1A60704780
:101AE000042808D14FF0E021096941F004014FF0CA
:101AF000E022116107E04FF0E021096921F00401C3
:101B00004FF0E022116170470000FA050CED00E093
:101B100000E400E080E100E080FFFF1F10B5044614
:101B2000FE48844208D10121C014FFF73BFF002189
:101B3000E014FFF737FFC4E0B4F1804F08D1012172
:101B40000846FFF73CFF00210120FFF738FFB8E00F
:101B5000F348844208D101210220FFF730FF002121
:101B60000220FFF72CFFACE0EE48844208D10121AF
:101B70000420FFF724FF00210420FFF720FFA0E04E
:101B8000E948844208D101210820FFF718FF00210D
:101B90000820FFF714FF94E0E448844208D10121B3
:101BA0001020FFF70CFF00211020FFF708FF88E04E
:101BB000DF48844208D101212020FFF700FF0021E7
:101BC0002020FFF7FCFE7CE0DA48844208D10121A6
:101BD0004014FFF7E7FE00216014FFF7E3FE70E01A
:101BE000D548844209D10121C804FFF7DBFE00215A
:101BF0004FF40020FFF7D6FE63E0D048844209D1BD
:101C000001210805FFF7CEFE00214FF48010FFF7F9
:101C1000C9FE56E0CA48844209D101214805FFF7B0
:101C2000C1FE00214FF40010FFF7BCFE49E0C5489B
:101C3000844208D101214020FFF7C1FE002140204D
:101C4000FFF7BDFE3DE0C048844208D1012180205D
:101C5000FFF7B5FE00218020FFF7B1FE31E0BB4861
:101C6000844208D101218015FFF7A9FE0021A015AB
:101C7000FFF7A5FE25E0B648844209D101210804FA
:101C8000FFF790FE00214FF48030FFF78BFE18E045
:101C9000B048844209D101214804FFF783FE0021A6
:101CA0004FF40030FFF77EFE0BE0AB48844208D1D2
:101CB00001218804FFF776FE00214FF48020FFF712
:101CC00071FE10BD00220288944B98420ED0994BB1
:101CD00098420BD0B0F1804F08D0914B984205D07C
:101CE000904B984202D0904B984204D14FF68F739C
:101CF0001A404B881A438D4B984207D08C4B984220
:101D000004D04FF6FF431A40CB881A4302808B88D9
:101D100083850B880385814B98420BD0854B984275
:101D200008D08B4B984205D08A4B984202D08A4B00
:101D3000984201D10B7A038601238382704770B5E4
:101D4000002400220023058C4FF6FE7635400584E2
:101D5000028C8388048B4FF68F752C40B51E2C4067
:101D60000D882C43751E2A400D892A434D882A432D
:101D70006A4DA8420BD06F4DA84208D0744DA842BE
:101D800005D0744DA84202D0734DA84213D14FF62E
:101D9000F7752A404D892A434FF6FB752A408D88F6
:101DA0002A434FF6FF652B404FF6FF552B408D8998
:101DB0002B43CD892B4383800483CD888586028481
:101DC00070BD70B5002400220023058C4FF6EF761D
:101DD00035400584028C8388048B48F6FF752C40BF
:101DE0004FF6FF452C400D884FF6FF7606EA052595
:101DF0002C434FF6DF752A400D8906EA05152A4364
:101E00004D8806EA05152A43444DA84202D0494DA3
:101E1000A8421DD14FF67F752A404D894FF6FF76B7
:101E200006EA05152A434FF6BF752A408D8806EA53
:101E300005152A434FF6FF352B404FF2FF752B4017
:101E40008D8906EA85052B43CD8906EA85052B4356
:101E500083800483CD880587028470BD70B500241B
:101E600000220023058C4FF6FF6635400584028C66
:101E70008388848B4FF68F752C404FF6FC752C4071
:101E80000D882C434FF6FF552A400D894FF6FF76FB
:101E900006EA05252A434D8806EA05252A431F4DF3
:101EA000A84202D0234DA8421DD14FF2FF752A400F
:101EB0004D894FF6FF7606EA05252A434FF6FF3592
:101EC0002A408D8806EA05252A434EF6FF752B40E9
:101ED0004DF6FF752B408D8906EA05152B43CD89FC
:101EE00006EA05152B4383808483CD888587028489
:101EF00070BD70B5002200230024058C4EF6FF76DD
:101F000035400584038C8488828B48F6FF752A400F
:101F10004FF6FF452A400D8820E00000002C0140CC
:101F20000004004000080040000C00400010004089
:101F30000014004000340140004C014000500140BA
:101F40000054014000180040001C004000200040E8
:101F50000040014000440140004801404FF6FF7638
:101F600006EA05252A434DF6FF752B400D8906EA42
:101F700005352B434D8806EA05352B43FA4DA8421B
:101F800002D0FA4DA84208D14BF6FF752C408D893E
:101F90004FF6FF7606EA85152C4384808283CD8830
:101FA000A0F84050038470BD828B4FF2FF331A407B
:101FB0008283828B4FF6FF7303EA01231A438283E5
:101FC0007047F0B50C461546002200210026078C0C
:101FD0004EF6FF7C07EA0C070784828B018C4FF6D4
:101FE000FF7707EA043640F6FF473A404FF6FF779F
:101FF00007EA05273A434FF6FF7707EA03373A43E4
:10200000D94FB8420ED0D94FB8420BD0B0F1804F63
:1020100008D0D74FB84205D0D64FB84202D0D64FDD
:10202000B84206D14DF6FF77394046F48057394320
:1020300005E047F6FF57394044F48057394382831F
:102040000184F0BD828B4FF6F3731A408283828B3A
:102050000A4382837047F0B50C46154600220021E2
:102060000026078C4FF6FF6C07EA0C070784828B6B
:10207000018C4FF6FF7707EA04264FF60C773A40BB
:102080004FF6FF7707EA03172F433A43B64FB8429C
:102090000ED0B64FB8420BD0B0F1804F08D0B44F3D
:1020A000B84205D0B34FB84202D0B34FB84206D1C0
:1020B0004FF6FF57394046F48077394305E04FF239
:1020C000FF57394044F48077394382830184F0BD5F
:1020D000028B4FF2FF331A400283028B4FF6FF73DD
:1020E00003EA01231A4302837047F0B50C461546F4
:1020F000002200210026078C4FF6EF7C07EA0C0730
:102100000784028B018C4FF6FF7707EA041640F62E
:10211000FF473A404FF6FF7707EA03373A434FF657
:10212000FF7707EA05273A438F4FB8420ED08F4F0B
:10213000B8420BD0B0F1804F08D08D4FB84205D0D7
:102140008C4FB84202D08C4FB84206D14FF6DF77A1
:10215000394046F01007394305E04FF65F773940C4
:1021600044F01007394302830184F0BD028B4FF61F
:10217000F3731A400283028B0A4302837047F0B55F
:102180000C46154600220021068C4FF6FE773E4095
:102190000684028B018C4FF60C7632407E1C06EAD8
:1021A00003162E433243704EB0420ED06F4EB042F3
:1021B0000BD0B0F1804F08D06D4EB04205D06D4EBF
:1021C000B04202D06C4EB04206D14FF6FD7631409F
:1021D00044F00106314305E04FF6F576314044F016
:1021E0000106314302830184F0BD70B505460C46FB
:1021F0005D4885420ED05D4885420BD0B5F1804FD9
:1022000008D05B48854205D05A48854202D05A48DA
:10221000854200D100E000BF208850B92389A28800
:1022200061882846FFF7ABFFE1882846FFF79EFF4D
:1022300025E0208804280AD12389A28861882846BD
:10224000FFF753FFE1882846FFF742FF17E0208899
:1022500008280AD12389A28861882846FFF7FBFE57
:10226000E1882846FFF7EEFE09E02389A28861880D
:102270002846FFF7A6FEE1882846FFF795FE70BDC9
:102280002DE9F04105460C4600260127608808B973
:10229000022600E00026A088012801D1022700E0E4
:1022A00001272088A0B92389A28861882846FFF7E2
:1022B00066FFE1882846FFF759FF23893A463146F1
:1022C0002846FFF712FFE1882846FFF701FF13E0D9
:1022D0002389A28861882846FFF707FFE1882846FE
:1022E000FFF7F6FE23893A4631462846FFF747FFB7
:1022F000E1882846FFF73AFFBDE8F0810A884B885D
:102300001A438B881A43CB881A430B891A434B898B
:102310001A438B891A43A0F8442070474FF6FF7187
:10232000818000210180C1804180017270470021BD
:10233000018041808180C180018141818181C18191
:102340007047002101804180012181800021C180EE
:10235000018170470021018041808180C18001811D
:102360004181818170470000002C01400034014010
:102370000004004000080040000C004021B1028829
:1023800042F00102028004E002884FF6FE731A4018
:102390000280704731B1B0F8442042F40042A0F806
:1023A000442005E0B0F84420C2F30E02A0F8442017
:1023B00070471AB183890B43838102E083898B4381
:1023C000838170478182704741EA0203A0F8483058
:1023D00070471AB183890B43838102E083898B4361
:1023E0008381704701894FF6F8721140018170476F
:1023F0000A46002101894FF68F731940114301816C
:10240000704730B504460D4629462046FFF7F0FFD9
:10241000208940F00700208130BD2DE9F0410446BD
:102420000D4616461F46602D06D13B460122314619
:102430002046FFF75AFE05E03B4601223146204682
:10244000FFF79DFE29462046FFF7D2FF208940F086
:1024500007002081BDE8F08130B50C4600210189DC
:10246000C9B24FF6FF7505EA0325154325432943F5
:10247000018130BD2DE9F04105460E4617469846CC
:10248000002443463A4631462846FFF7E5FF2C89AB
:102490004FF6F870044044F007044FF68F70044084
:1024A00044F070042C81BDE8F081F0B504460D467F
:1024B00016461F463B46324629462046FFF7CCFFCC
:1024C000208940F480402081F0BD018582827047E0
:1024D0000A46002101884FF68F731940114301808D
:1024E0007047F0B50C4615461E4600210022002319
:1024F0000189028B038C4FF6F877394021434FF660
:10250000FC473A4040F201173A434FF6DD773B4033
:102510004FF6FF7707EA06172F433B4301810283FB
:102520000384F0BD0A460021018B4FF68F731940DA
:102530001143018370470A460021018B48F6FF735F
:1025400019404FF6FF7303EA0223194301837047D2
:102550000A460021818B4FF68F7319401143818306
:1025600070470A460021818B48F6FF7319404FF6E9
:10257000FF7303EA022319438183704721B1028864
:1025800042F08002028004E002884FF67F731A4016
:102590000280704721B1828842F00402828004E008
:1025A00082884FF6FB731A408280704721B182887F
:1025B00042F00802828004E082884FF6F7731A40E6
:1025C0008280704721B1828842F00102828004E05B
:1025D00082884FF6FE731A40828070470A460021B7
:1025E000018B4FF6F77319401143018370470A4678
:1025F0000021018B4FF2FF7319404FF6FF7303EA7E
:1026000002231943018370470A460021818B4FF64C
:10261000F77319401143818370470A460021818B6B
:102620004FF2FF7319404FF6FF7303EA0223194379
:10263000818370470A460021018B4FF6FB731940D6
:102640001143018370470A460021018B4FF6FF3387
:1026500019404FF6FF7303EA0223194301837047C1
:102660000A460021818B4FF6FB7319401143818389
:1026700070470A460021818B4FF6FF3319404FF611
:10268000FF7303EA02231943818370470A4600213E
:10269000018B4FF67F7319401143018370470A463F
:1026A0000021018BC1F30E014FF6FF7303EA0223F1
:1026B0001943018370470A460021818B4FF67F73CF
:1026C00019401143818370470A460021818BC1F371
:1026D0000E014FF6FF7303EA02231943818370470B
:1026E0000A460021018C4FF6FD7319401143018405
:1026F00070470A460021018C4FF6F77319401143C9
:10270000018470470A460021018C4FF6DF7319409F
:102710004FF6FF7303EA02131943018470470A4618
:102720000021018C4FF67F7319404FF6FF7303EAC7
:1027300002131943018470470A460021018C4FF6A9
:10274000FF5319404FF6FF7303EA02231943018434
:1027500070470A460021018C4FF2FF7319404FF673
:10276000FF7303EA02231943018470470A460021DC
:10277000018C4DF6FF7319404FF6FF7303EA0233E5
:1027800019430184704730B5002301248C40A3B263
:10279000048C9C430484048C02FA01F5ADB22C43F2
:1027A000048430BD30B5002304248C40A3B2048CD3
:1027B0009C430484048C02FA01F5ADB22C430484DA
:1027C00030BD70B50346002000241846183001259E
:1027D0008D40ACB21D8CA5431D8409B1082909D1D7
:1027E00000EB6100056825F070050560056815437C
:1027F00005600EE00D1FC5F34E052844056825F45D
:10280000E045056005684FF6FF7606EA0226354387
:10281000056070BD21B1028842F00202028004E02E
:1028200002884FF6FD731A400280704721B102887A
:1028300042F00402028004E002884FF6FB731A4063
:102840000280704721B1828842F08002828004E0D9
:1028500082884FF67F731A408280704702884FF655
:10286000F7731A40028002880A4302807047828808
:102870004FF68F731A40828082880A4382807047A5
:1028800002894FF6F8731A40028102890A430281D5
:10289000704702894FF67F731A40028102890A430A
:1028A00002817047818470478185704781867047B7
:1028B0000187704781877047A0F8401070470288F1
:1028C0004FF6FF431A40028002880A430280704795
:1028D0000146888E70470146088F70470146888FF1
:1028E00070470146B1F8400070470146888C704738
:1028F0000146088D704702460020138A0B4201D022
:10290000012000E000207047CA430282704730B5C2
:102910000246002000230024158A05EA0103958958
:1029200005EA010413B10CB1012000E0002030BD24
:10293000CA43028270470000002044490860091D14
:102940000860091D0860091D086041483F491431AD
:102950000860704700213D498279002A3AD00A4632
:10296000126803689A430B461A600A1D12680368CE
:102970009A430B1D1A60027911440A6803681A43CE
:102980000A60324A0832126803689A432F4B0833B0
:102990001A601A1D126803689A432C4B0C331A6094
:1029A0004279102A0ED11A1F126803681A43274B66
:1029B00008331A601A1D126803681A43234B0C333C
:1029C0001A600DE02149427911440A6803681A43EC
:1029D0000A6005E0027911440A6803689A430A60B4
:1029E00070470021016001710C214171002181714A
:1029F00070471649103109680143144A10321160BA
:102A0000704701460020114A143212680A4201D070
:102A1000012000E0002070470C4914310860704725
:102A2000014600200022094B1B6803EA0102074B04
:102A300014331B680B4202D00AB1012000E00020D1
:102A400070470249143108607047000000040140DB
:102A5000FFFF0F000948804709480047FEE7FEE7EF
:102A6000FEE7FEE7FEE7FEE7FEE7FEE7FEE7FEE73E
:102A700004480549054A064B70470000F10200086A
:102A800031010008D81A0020D8200020D81C0020CE
:102A9000D81C0020704770477047754600F028F832
:102AA000AE4605006946534620F00700854618B03B
:102AB00020B5FFF7DDFFBDE820404FF000064FF0E6
:102AC00000074FF000084FF0000B21F00701AC4663
:102AD000ACE8C009ACE8C009ACE8C009ACE8C00982
:102AE0008D4670470446AFF300802046FDF78BFB10
:102AF00000487047781A002001491820ABBEFEE755
:102B0000260002007047000021F00042A2F160524E
:102B1000B2F5801F01F0004328BFD2F17F6C0BD9C2
:102B20005FEA001C43EAC20242EB507018BF7047D4
:102B300028BF20F001007047B2F5801FBCBF1846C7
:102B400070474FEA410C1CF5001F02D2084600F006
:102B5000B4BA70B500F079F900000089FFF7F6BF4C
:102B60004FF00040A0F58000704700002DE9C04103
:102B700030B4DFF8A0C23CEA111418BF3CEA1314C9
:102B800000F0EC8081EA03051CEA111444EAD574D4
:102B900018BF1CEA131500F0C780A4EB05044FF022
:102BA000004545EAC12145EAC32341EA505143EAC1
:102BB000525304F17F74994204F500344FEAC02067
:102BC0004FEAC22208BF904200F09C804FEA136592
:102BD0000FF24016765D4FEA134506FB05F7C7F185
:102BE000807706FB07F74FEAD737A7FB03687642E3
:102BF000C8F58038A7FB06CE38BFA8F1010807FB4F
:102C000008E64FF0000EA6FB028CE6FB03CEDCF1DB
:102C1000000CCEF1004E38BFAEF1010EA6FB0C58F1
:102C20004FF000074FF00005E6FB0E87A1FB08C63A
:102C3000A0FB07CE16EB0E0645F10005E1FB07658C
:102C400015F1E04E7EBFA4F580345FEA46066D4183
:102C500016F1800745F100054FEA17274FEA06668F
:102C600047EA0567A6F1DE46B6F1805F4FEA152513
:102C70001FD9384624F0010C05EBC471BCF1FE6F7E
:102C800001EB0C1102D8F0BCBDE8008124425CBF0E
:102C900001F5801E9EEAC47F02D4F0BCBDE800812D
:102CA000244238D4F0BCA1F1C041BDE8004100F09D
:102CB0001AB94FEAD22242EA43524FEAD323A7FB82
:102CC00002864FEAD02040EA415007FB03661EEA25
:102CD0000E0F4FEAD12105FB026658BFA6EB005646
:102CE000B6EB00564FEA520E4EEAC37E18EB0E0EBC
:102CF00056EB530EBDD518EB02085E417F1C55F113
:102D00000005B6E74FF480154FF000074FF00006BE
:102D10004FF00008ADE7F0BC4FF0000001F1C041FA
:102D200001F00041BDE8008111EA0C1F0CEA131507
:102D300000D00CE013EA0C1F00F025804FF00000DB
:102D4000F0BC81EA030101F00041BDE80081F0BC64
:102D5000BDE8004181EA030100F0C5B8F0BCBDE860
:102D6000004170B500F071F8097EFC3E00F007B834
:102D700081EA03014FF0000001F00041704781EA51
:102D8000030100F0B0B8F0BCBDE800414FF0000016
:102D900021497047FFFDFBF9F7F5F4F2F0EEEDEB9A
:102DA000E9E8E6E4E3E1E0DEDDDBDAD8D7D5D4D349
:102DB000D1D0CFCDCCCBCAC8C7C6C5C4C2C1C0BF95
:102DC000BEBDBCBBBAB9B8B7B6B5B4B3B2B1B0AF9B
:102DD000AEADACABAAA9A8A8A7A6A5A4A3A3A2A17F
:102DE000A09F9F9E9D9C9C9B9A999998979796953A
:102DF00095949393929191908F8F8E8E8D8C8C8BD6
:102E00008B8A89898888878786858584848383825D
:102E1000828181800000FF070000F87F10F00042EF
:102E200048BF4042B0FA80F310FA03F10AD0C3F170
:102E30001D0303F580634FEA415002EB035202EB9E
:102E4000D12170474FF0000070470EF1020E2EF0B6
:102E5000030E5EF8046B364205D4012A43EB0305EA
:102E600015F5001F12D8012841EB010C1CF5001FBD
:102E70000CD80ED14FEAD17C15F5001F0CEB4C0C91
:102E80000CF1020C08BF4CEBD37C04E04FF0080CB3
:102E900001E04FEAD37C0CEB4C0526FA05F606F070
:102EA0000706B6F1040C06D20EEB860CBDE87040A6
:102EB0004CF0010C6047DFE80CF0090B02024FF008
:102EC00000414FF00000A1F5002170BD19461046E9
:102ED000012851EB010418BFD4F5001484BF002071
:102EE00001F0004170BD0808A0F500114FEA310162
:102EF0007047000041000B0ED3F19E0208D950F438
:102F000000034FEA032323FA02F048BF4042704710
:102F100010B500F08CF800BF499224800020704763
:102F20006FF0004282EA2000704700004FF47F0CEF
:102F30001CEAD0121EBF1CEAD11392EA0C0F93EACE
:102F40000C0F00F0478090EA010F48BF42F48072F6
:102F50004FF0004C4CEA00204CEA012102EB030246
:102F6000A0FB0113A2F50002002918BF43F00103E2
:102F70005B0028BF4FEA330342EB22425FEA132C87
:102F80004CEBC2502EBFBCEB436FB2F57C0F7047C9
:102F90004FEA036CBCF1004F08BF20F00100B2F50E
:102FA0007C0F38BF70470BD582F0FF0212F5803FCF
:102FB000C8BF704700F1C040D8BF00F00040704764
:102FC00000F5000C5FEA4C0C48BF7047B0F1C04000
:102FD00000F073B890EA010F0CEAD11348BF42F435
:102FE0008072624538BF634504D280EA010000F078
:102FF0000040704710B500F01AF800BF8900013E8C
:1030000000F007B800F009B85FEA410C5FEA1C6CF9
:1030100008D080EA010000F050B85FEA400C5FEA97
:103020001C6CF6D14FF00040A0F5800070470EF107
:10303000020E2EF0030E5EF8044B244204D44FEA35
:103040004102B2F17F4F11D84FEA4003B3F17F4FF5
:103050000CD80ED14FEAD07CB2F17F4F0CEB4C0C68
:103060000CF1020C08BF4CEBD17C04E04FF0080CD3
:1030700001E04FEAD17C0CEB4C0324FA03F404F09A
:103080000704B4F1040C06D20EEB840CBDE810402A
:103090004CF0010C6047DFE80CF0070802024FF02B
:1030A0000040A0F5800010BD0846420018BFD2F1D4
:1030B000807288BF00F0004010BDFF2141EAD0506F
:1030C000C00570470000000000000000002F000055
:1030D00000000700070000147F147F1400242A7FDB
:1030E0002A1200626408132300364955225000005A
:1030F0000503000000001C224100000041221C00CA
:103100000014083E08140008083E0808000000A04B
:103110006000000808080808000060600000002047
:1031200010080402003E5149453E0000427F400025
:10313000004261514946002141454B3100181412AB
:103140007F10002745454539003C4A494930000178
:103150007109050300364949493600064949291EC7
:103160000000363600000000563600000008142229
:103170004100001414141414000041221408000229
:103180000151090600324959513E007C1211127C4E
:10319000007F49494936003E41414122007F41417B
:1031A000221C007F49494941007F09090901003E6D
:1031B0004149497A007F0808087F0000417F4100AB
:1031C000002040413F01007F08142241007F404021
:1031D0004040007F020C027F007F0408107F003E09
:1031E0004141413E007F09090906003E4151215EEF
:1031F000007F091929460046494949310001017FEC
:103200000101003F4040403F001F2040201F003F81
:103210004038403F00631408146300070870080733
:1032200000615149454300007F41410000552A5546
:103230002A55000041417F000004020102040040C1
:1032400040404040000001020400002054545478E3
:10325000007F484444380038444444200038444403
:10326000487F00385454541800087E0901020018A1
:10327000A4A4A47C007F080404780000447D4000DE
:10328000004080847D00007F102844000000417FC2
:103290004000007C04180478007C0804047800389E
:1032A0004444443800FC242424180018242418FC26
:1032B000007C0804040800485454542000043F448F
:1032C0004020003C4040207C001C2040201C003C52
:1032D0004030403C004428102844001CA0A0A07CA2
:1032E000004464544C4414141414141400000000DA
:1032F000000000000000000000000000000000F8D6
:1033000000000000000000333000000000100C0638
:10331000100C0600000000000000000040C07840D3
:10332000C0784000043F04043F040400007088FC9F
:1033300008300000001820FF211E0000F008F000F7
:10334000E018000000211C031E211E0000F0088868
:10335000700000001E2123241927211010160E00D2
:10336000000000000000000000000000000000E07D
:103370001804020000000007182040000002041892
:10338000E00000000040201807000000404080F0EE
:10339000804040000202010F01020200000000F024
:1033A000000000000101011F0101010000000000F8
:1033B0000000000080B0700000000000000000006D
:1033C00000000000000101010101010100000000F6
:1033D000000000000030300000000000000000008D
:1033E00080601804006018060100000000E010086A
:1033F0000810E000000F102020100F00001010F83F
:10340000000000000020203F20200000007008087D
:1034100008887000003028242221300000300888FD
:10342000884830000018202020110E000000C02025
:1034300010F8000000070424243F240000F8088846
:10344000880808000019212020110E0000E01088D3
:1034500088180000000F112020110E000038080805
:10346000C83808000000003F000000000070880815
:1034700008887000001C222121221C0000E0100896
:103480000810E0000000312222110F00000000C0EF
:10349000C00000000000003030000000000000808C
:1034A000000000000000806000000000000080407C
:1034B0002010080000010204081020004040404095
:1034C00040404000040404040404040000081020E8
:1034D000408000000020100804020100007048082D
:1034E0000808F0000000003036010000C030C82895
:1034F000E810E0000718272423140B000000C03850
:10350000E0000000203C23020227382008F88888C9
:1035100088700000203F202020110E00C0300808D5
:1035200008083800071820202010080008F80808AC
:103530000810E000203F202020100F0008F88888A5
:10354000E8081000203F20202320180008F8888871
:10355000E8081000203F200003000000C0300808E9
:103560000838000007182020221E020008F8080072
:103570000008F808203F210101213F20000808F839
:10358000080800000020203F20200000000008085C
:10359000F8080800C08080807F00000008F888C01C
:1035A00028180800203F20012638200008F80800CD
:1035B00000000000203F20202020300008F8F80004
:1035C000F8F80800203F003F003F200008F830C016
:1035D0000008F808203F200007183F00E010080806
:1035E0000810E0000F10202020100F0008F8080835
:1035F0000808F000203F210101010000E010080848
:103600000810E0000F18242438504F0008F888886C
:1036100088887000203F2000030C3020007088084C
:10362000080838000038202121221C00180808F85A
:10363000080818000000203F2000000008F80800DB
:103640000008F808001F202020201F0008788800AC
:1036500000C83808000007380E010000F80800F81C
:103660000008F800033C0700073C030008186880C6
:103670008068180820302C03032C30200838C8003C
:10368000C83808000000203F20000000100808088B
:10369000C83808002038262120201800000000FE2D
:1036A000020202000000007F40404000000C30C0D9
:1036B00000000000000000010638C0000002020205
:1036C000FE000000004040407F00000000000402B7
:1036D00002020400000000000000000000000000E2
:1036E00000000000808080808080808000020204D2
:1036F00000000000000000000000000000008080CA
:10370000808000000019242222223F2008F8008037
:1037100080000000003F112020110E0000000080FA
:1037200080800000000E1120202011000000008089
:103730008088F800000E112020103F2000008080BB
:1037400080800000001F222222221300008080F0CF
:10375000888888180020203F2020000000008080FA
:1037600080808000006B94949493600008F800803F
:1037700080800000203F210000203F20008098989A
:10378000000000000020203F2020000000000080FA
:103790009898000000C08080807F000008F800003A
:1037A00080808000203F24022D302000000808F88F
:1037B000000000000020203F20200000808080804A
:1037C00080808000203F20003F20003F80800080DC
:1037D00080800000203F210000203F2000008080EA
:1037E00080800000001F202020201F00808000809B
:1037F0008000000080FFA12020110E00000000804A
:1038000080808000000E112020A0FF80808080003A
:103810008080800020203F21200001000000808067
:10382000808080000033242424241900008080E05C
:10383000808000000000001F202000008080000029
:1038400000808000001F202020103F20808080000A
:103850000080808000010E3008060100808000801A
:10386000008080800F300C030C300F00008080003F
:10387000808080000020312E0E312000808080006A
:103880000080808080818E7018060100008080801A
:10389000808080000021302C2221300000000000B8
:1038A000807C020200000000003F40400000000059
:1038B000FF00000000000000FF0000000002027C8A
:1038C000800000000040403F0000000000060101B1
:1038D000020204040000000000000000FC380008A0
:1038E00000000020781A00006C0100089C430008CA
:1038F000781A002060060000D0010008500600A2DF
:103900004A040001900A01020304060708090001A5
:10391000000E112424A4FEA3220022CC0000FF00EC
:10392000012008080601FF00010401000511FF0243
:10393000020222000D11E09C848484F4828283823E
:1039400080801F000E122010080640807F000002B9
:103950000408306213FE9201410501115E000E1150
:10396000403801003C4040424C404070054113400B
:1039700042BA000A10E2222A2AF22A2622E09E00F7
:103980000F1080403F4080FF898989BF89A9C9BF46
:10399000A110091010D0FF901000FEDC01127F145E
:1039A0000400040318100483601F8B0005103F40BF
:1039B00040786013809EBA0009109EE0809EB2D2CB
:1039C000929E600011140808F4949292F10001F2A2
:1039D000929494F8080001000415C03FC01A100723
:1039E000804020100C0389000610030C102040C0FA
:1039F000040C154020D04C4344C8102000F8C234B9
:103A00000A3F404448474070000F86F540040F10BD
:103A1000445465C664544400FC4444C44240BF243A
:103A200008124A827F020A920201125F000E1120E0
:103A3000A4A4A4FFA4B42884708F0808E0000E1189
:103A4000040A49887E0504844020130C33C0100901
:103A5000040424B4ACA4A5A647080512B464040465
:103A60002123FF0A010404134A8A7FA0080E1024B0
:103A70004484649C40300FC8080828187F197E04CD
:103A80000A1301824C20180601061840394110041F
:103A9000FC0402040B1204FC81040D10201F2040C2
:103AA0004F4442407F42444320100B8060F807049B
:103AB000E4242424FF040212E4C00C0D12FF008051
:103AC000814529112F41418181210313FE220141AA
:103AD000050912001B601F9B040712027F020242AD
:103AE000820131C0000A15504EC8487FC84848407E
:103AF000C0040A10504C4340404F50505CE00C0E44
:103B0000111010FF100082864A52A2524A86C10349
:103B100011761008010010121212FF040E1210216B
:103B20000410053000FF20011105040411222C208F
:103B3000E00408150201FF8040300E80140A0004E2
:103B400084844424548F14C80611843F7C04413972
:103B50000000040C0414040931C003180414E4AF79
:103B6000400612AF7F3DC0030C0A12894B2A1A0E81
:103B70001A2A4B8800042290012507000411101115
:103B800016E14C082060203F10101080030E12F840
:103B9000C1041D3A031004444546050B12447C3F02
:103BA00033180722212009116010044044C41D323B
:103BB00040800B1110F0C024063C131014B8401EB6
:103BC00040CB0401117E1C04F80C0B79031F40301C
:103BD0007F030212089F137F21012DF90302144372
:103BE000404C05FC2424FC84050D138005001015B1
:103BF000003F11113F00FF4020030C1422414040C0
:103C00001006445454547F0402154440080915001A
:103C1000FF15151555957FC00C091400F1161010ED
:103C20001814F303051C0B3F9048211907013F416D
:103C300041C6040114401E2081030C0612FE2223FB
:103C4000222043051F7F20E0050C0612424243421A
:103C50004261061DF80531FD1D84060D12DF0615B3
:103C600096171F105B0C0611080804FF04A0041E21
:103C700080A10510091E02028202023E40010D11C0
:103C8000A0060C0C112222120A06FF060A1222229A
:103C900060051D42061006BEAAAAABAA010E13BEFD
:103CA0003F070C0E10202FAA6A2A2A2F2A2AEA2A56
:103CB0002F206003338082010C0614E2A2928A86D0
:103CC000810729650D12FA058D0208153D1EFC7F3E
:103CD00004071323221F3E027B0431080511210C27
:103CE00010132010FF555555F70052565AF35A56E7
:103CF00012E107322A010A13AA5F2D790317900EE9
:103D00002316C2210F130E008004040B1020211172
:103D10000905FF05091121001C051060028CBE0772
:103D20001EF2BE070E12F8A1060C0D1204047E014D
:103D30008047300F1027004700071C072030AC6376
:103D400020188706071204FCDF1C0500226722FDED
:103D50000425DB06137FE03C0500C0301FB9030ECD
:103D600013FFDE043C060081402112C007219C0E97
:103D70001103E0030C0E1088C43300FE12D252521D
:103D80007F5151D180041E017C032006300F00FFBB
:103D90004A010E15FF00060C0B1408C808F8090E9E
:103DA000F808488800060C0B135148464148504F0C
:103DB00040404140093C07807E22223E0008080125
:103DC000123F0C0D1122415F49495F4042425F4260
:103DD00042BF060C0D110222DA0610D2565A535A6F
:103DE00056D24005080F13FF0810080710171515C5
:103DF000FD15151710002C0880FC96A5FC403E43CD
:103E0000030913000C0B15807F0488FF008F5121DC
:103E10005FC0071C06202222A26242070E15200066
:103E2000073C04444E45A4050E104C00071DBB037F
:103E30002E72FC0911080B114232E04F808181097A
:103E40004D7F090D12C00747C038DE1DEA050D126F
:103E5000DE03011F40013F012007E0F0F0E0C0C099
:103E6000060D15E2030C09130103070F0F070301E9
:103E70001B042E3CFA061C0520108F78BE090D117C
:103E800040060C0D13020602FF01010442211846F0
:103E90008180062D01091DBB062C04D0FFD026070A
:103EA0000911C00C0D1200FF1008040B08FF080BCD
:103EB000040841085E827F050D14000C2D790C0C5E
:103EC00009120C34040444847F0480053E1041042C
:103ED0002D7F080C0411101196BF072F0444C10850
:103EE0002D7E0A1DBF060111E0238070A00C091071
:103EF000209088874404948C00092C058060180762
:103F0000E3081DA4070C058F404444FF400C3D000E
:103F10000A3005808888FF030E1580C00A3D010A1B
:103F20000E135FC00439210C0420E21CE0800C0E4B
:103F3000123000030D3E80034D01051D5D04134248
:103F4000C2040D11A0034E01D6050D1BC3060D3A88
:103F5000400D0D3D80090C0A1440484848FF484870
:103F600000C4DF092DC00B1B207F3D1D7E0B0D13F0
:103F7000800B1D210E1E28BB0C0C0711FF080888A2
:103F800068081F0E1C04212111FD061C0403FF03F9
:103F9000FF060C0410112121A0081F0C0580073317
:103FA000057F060F12140C000F040C501115F59527
:103FB0001515355555B591001C05003E22E23D060C
:103FC0003DC00C0F1122E220083C083F201F1111B8
:103FD000007F000B0F124740E0031C04F484D40060
:103FE0000E0C0413D484F481071D9A050C0C4F1297
:103FF0003A1613121A3242827E0040044D00080C19
:104000000811809090FF90494A410D6D00080D16EF
:1040100041043D000E0C0614645CC4644480082D09
:10402000000E0C09132062221F1212004F86093C59
:104030000808884828180FE8630A091100200408B6
:1040400008090132FF060911211C0420180A3C0A44
:10405000330AFE060D12010F0D1E60112DC0031D47
:10406000C0051F907F040D0D12C1052D400E1C05CB
:10407000484442413D080E114240071DBF0D1C043B
:10408000FC8484670904051284E41C84601F60209A
:1040900020094E04C7030F13010600081C07102057
:1040A000A4ACB5A607100D11E00A0C0F1210301FBA
:1040B0000888804F3A0A0A7A8A8F80A60419151F49
:1040C000FF0001100C0411041464400E100640405F
:1040D0007E42420321040E117EA00B0D3E400A0DCC
:1040E0003E40102F100C3E100C08112526241414ED
:1040F0001404C0031D18041B4F29010805120F29C1
:104100004989002D00070C0B109020984828090EB3
:104110002848A801112C050242817F250D45050D77
:1041200011A00C3F504EC1040F16484040121D987C
:10413000090C0515FF12221E40121C0400FCF87E1B
:10414000080D19D8080C04167F3F1F7C085D000479
:104150002C0584E43C27840C0E12E4E007393A2D48
:1041600002030F144989C40C3D3B064E7E3E060EE9
:104170001840C0061DBD130E11403F0E1C05000463
:1041800014D4BC0E2354DF050C0416D4140480117F
:104190003203050D1380111C0544445464FF0F1DA8
:1041A00044130E1444600743FF490105135E4006A3
:1041B00020104C4754010E14D4FF127DCB120C0476
:1041C000110F3040A1062DB7121D00082D01080D5A
:1041D0001300082C050F04042F05130C0611FF0112
:1041E000060810210B1C040202F2DE114EF2040B31
:1041F0000D12E01521420F16040F440E3D40091C1C
:1042000006289827C43C42040F14121440090C0BD2
:104210004F98640328C621C01126C880091C0708CE
:1042200008E8292E283F050C0512C80C0BE84105AB
:10423000193E393B0915BF0D4140091D02113F24AC
:1042400024400F0D11A00F3D00121D7E1021010D05
:1042500017800529230C0616C949497F8080141C44
:10426000045F48447F050F10455840042D38064C24
:104270000488780F3F060D1220061E10FC0D110158
:10428000227F050D11A0101C07C8B88FE88888C6CA
:10429000080C0412E85F4841141C04081808F810C0
:1042A0000C091200020B1222D20A06A006157B028C
:1042B0001838802E0800144241010E15FF3F0C0CE7
:1042C0000A14000474545556545474FF150C0C12FF
:1042D0000003010545857D0505050182032E0015B6
:1042E000030F14FF409E0F5E00B90F3DBD0F0D126E
:1042F000A0111D7E040C06165C44C400BE81114C46
:104300000A02017F10103F020A1204110D12C103AC
:104310001C04E824277E140C0411A4B4ACBF061DB1
:1043200080091DBE0F2D3B184D85170D12FF152C52
:10433000045A8640A2150C04124C50206010040D43
:1043400011FF040807404458414E605847C01C0400
:1043500080908C7F191FF58684190E128440031DEE
:10436000A1180C09138446492810102C23A0102DE5
:10437000C0120C0814504844C3444850E00E2DE1CC
:10438000043F4444C0090D163F0C4D5A1A6D5E1A85
:0C43900000070002040608000000000006
:0400000508002A5570
:00000001FF
