:020000040800F2
:10000000D02000202D180008F1030008F303000899
:10001000F7030008FB030008FF03000800000000CE
:1000200000000000000000000000000003040008C1
:100030000504000800000000070400080904000887
:100040004718000847180008471800084718000814
:100050004718000847180008471800084718000804
:1000600047180008471800084718000847180008F4
:1000700047180008471800084718000847180008E4
:1000800047180008471800084718000847180008D4
:1000900047180008471800084718000847180008C4
:1000A00047180008471800084718000847180008B4
:1000B00047180008471800084718000847180008A4
:1000C0004718000847180008471800084718000894
:1000D0004718000847180008471800084718000884
:1000E0004718000847180008471800084718000874
:1000F0004718000847180008471800084718000864
:100100004718000847180008471800084718000853
:100110004718000847180008471800084718000843
:100120004718000847180008471800084718000833
:1001300000F002F800F05EF80AA090E8000C82449B
:100140008344AAF10107DA4501D100F053F8AFF278
:10015000090EBAE80F0013F0010F18BFFB1A43F0A5
:1001600001031847941F0000B41F000010F8013B62
:100170000A4413F0030408BF10F8014B1D1108BF17
:1001800010F8015B641E05D010F8016B641E01F8C5
:10019000016BF9D1002D15D010F8014B03F00C03C1
:1001A0000C2BA1EB04040ABF10F8013BA4EB831451
:1001B000A4EB032405F1010314F8016B5B1E01F8A5
:1001C000016BF9D5914238BF10F8013BD1D370478C
:1001D0000023002400250026103A28BF78C1FBD850
:1001E000520728BF30C148BF0B6070471FB51FBD05
:1001F00010B510BD01F03DFB1146FFF7F7FF00F011
:1002000095F901F05BFB03B4FFF7F2FF03BC01F0CB
:100210005FFB00000CB50020019000906B48006867
:1002200040F480306949086000BF6848006800F405
:10023000003000900198401C0190009818B9019876
:10024000B0F5A06FF1D16148006810F4003F02D012
:100250000120009001E0002000900098012842D188
:100260005B48006840F01000594908600846006883
:1002700020F0030008600846006840F002000860B3
:1002800052484068514948600846406848600846FE
:10029000406840F4806048600846406820F47C1064
:1002A00048600846406840F4E81048600846006826
:1002B00040F08070086000BF4448006810F0007F84
:1002C000FAD04248406820F00300404948600846A0
:1002D000406840F00200486000BF3C48406800F0C1
:1002E0000C000828F9D10CBD10B5FFF793FF10BD25
:1002F00010B53648006840F00100344908600846EF
:10030000406834490840314948600846006832492D
:1003100008402E4908600846006820F480200860E4
:100320000846406820F4FE0048604FF41F008860D3
:10033000FFF7DAFF4FF000602849086010BD10B5E4
:10034000002100200022214B5B6803F00C0121B149
:10035000042906D0082928D107E0214B214C23602D
:1003600027E01F4B1F4C236023E0184B5B6803F40E
:100370007010164B5B6803F48032022303EB90404D
:1003800022B9194B4343174C23600DE00F4B5B68B8
:1003900013F4003F04D0144B4343124C236003E09A
:1003A0000F4B43430F4C236003E00D4B0D4C236078
:1003B00000BF00BF054B5B68C3F303130B4CE15C4C
:1003C000084B1B68CB40074C236010BD0010024057
:1003D000002002400000FFF8FFFFF6FE08ED00E0FD
:1003E00000127A000000002000093D0004000020F7
:1003F000704700BFFEE700BFFEE700BFFEE700BF9B
:10040000FEE77047704770477047000010B50B2239
:100410000021162000F07FFA0C2200212C2000F091
:100420007AFA0D220021422000F075FA0E220021F6
:10043000582000F070FA00220221162000F06BFA1A
:10044000012202212C2000F066FA022211464220ED
:1004500000F061FA03220221582000F05CFA042225
:100460001146212000F057FA05220421372000F020
:1004700052FA062204214D2000F04DFA2F220621C7
:10048000172000F048FA4FF4167000F094F82F226D
:100490000621282000F03FFA4FF4167000F08BF888
:1004A0002F220621392000F036FA4FF4167000F0A2
:1004B00082F82F2206214A2000F02DFA4FF4167000
:1004C00000F079F82BA206215C2000F009FA4FF425
:1004D000167000F070F800F061F95122002102203E
:1004E00000F019FA00221146102000F014FA01223F
:1004F0000021232000F00FFA02220021362000F014
:100500000AFA03220021492000F005FA54220321AF
:10051000102000F000FA55220321232000F0FBF9FF
:1005200015A20321372000F0DBF910BD00F09EF882
:10053000482000F025F800F058FA00F07BF800F0B1
:100540002DF9FFF763FF13E010210C4800F0E1FEE6
:1005500048B952220321462000F0DDF94FF496708D
:1005600000F029F804E053220321462000F0D3F9DB
:10057000EAE700004F4B21003A000000000C014068
:100580004FF0E021096921F004014FF0E0221161F0
:10059000C21700EB5272D210244B1A701946097818
:1005A00001EB4102C2EBC1114FF6FF7202EAC10139
:1005B0001F4A1180704701461D4A12884A434FF076
:1005C000E0235A6100229A6101221A6100BF4FF0B4
:1005D000E022106910F0010F02D010F4803FF6D035
:1005E00000224FF0E0231A619A61704701460F4ADA
:1005F00012784A434FF0E0235A6100229A610122A7
:100600001A6100BF4FF0E022106910F0010F02D014
:1006100010F4803FF6D000224FF0E0231A619A6177
:10062000704700E0401E0028FCD1704714000020F5
:100630001600002008B50121092001F08FF80121E2
:10064000084800F0A4FE1020ADF8000004208DF84A
:10065000030002208DF802006946034800F0C8FD3F
:1006600008BD000000043000000C014010B54FF43C
:10067000803000F029FF00F066FF0446012C24D1F1
:10068000002000F0A6FFA00200F0ACFF002000F068
:10069000B2FF022000F06EFA102000F07FFA4FF453
:1006A000E011200400F078FF012000F081FF00BF7E
:1006B000392000F02CFF0028FAD0022000F07BFF48
:1006C00000BF00F081FF0828FBD110BD70B50446C3
:1006D0000E462EB14FF40051FE4800F034FE04E007
:1006E0004FF40051FB4800F030FE00251BE04FF4B2
:1006F0008071F94800F029FE14F0800F05D04FF406
:100700000041F44800F01FFE04E04FF40041F148BE
:1007100000F01BFE4FF48071EF4800F014FE6006FD
:10072000040E681CC5B2082DE1DB4FF40051E94806
:1007300000F009FE70BD70B504460D4605F1B0012C
:10074000C8B20021FFF7C2FF102141EA14100021B6
:10075000FFF7BCFF04F00F0141F001000021FFF79B
:10076000B5FF70BD10B500218D20FFF7AFFF002150
:100770001420FFF7ABFF0021AF20FFF7A7FF10BD4C
:1007800010B500218D20FFF7A1FF00211020FFF7F9
:100790009DFF0021AE20FFF799FF10BD70B500242A
:1007A00019E004F1B001C8B20021FFF78FFF00216A
:1007B0000846FFF78BFF00211020FFF787FF002579
:1007C00005E001210020FFF781FF681CC5B2802DE4
:1007D000F7DB601CC4B2082CE3DB70BD2DE9F041EF
:1007E00007460E46904600250024A8F12000C5B219
:1007F0007F2F02DD0027B01CC6B231463846FFF716
:100800009AFF002408E004EB0511B44A505C012172
:10081000FFF75CFF601CC4B2082CF4DB701CC1B293
:100820003846FFF788FF002409E004EB0511083182
:10083000AA4A505C0121FFF749FF601CC4B2082C92
:10084000F3DBBDE8F08110B50246012000E0504323
:100850000B00A1F10104E1B2F9D110BD2DE9FF5F58
:10086000074691461D460E9E4FF0000A002433E0D5
:10087000281B401EC1B20A20FFF7E5FFB9FBF0F0CC
:100880000A21B0FBF1F201FB1208BAF1000F13D1FB
:10089000681EA04210DDB8F1000F0BD1B34606EB85
:1008A000DB71491001FB0471C8B220220199FFF7E6
:1008B00095FF0FE04FF0010AB34606EBDB714910DC
:1008C00001FB0471C8B208F13001CAB20199FFF707
:1008D00085FF00BF601CC4B2AC42C9DBBDE8FF9F0E
:1008E0002DE9F04104460F46154600260EE0AA5DAC
:1008F00039462046FFF772FF04F10800C4B2782C95
:1009000002DD0024B81CC7B2701CC6B2A85D002866
:10091000EDD1BDE8F0812DE9F04180460E46154647
:10092000002731464046FFF706FF00240AE06C4AE4
:1009300002EB8511085D0121FFF7C8FE781CC7B2E4
:10094000601CC4B2102CF2DB701CC1B24046FFF731
:10095000F2FE00240CE06900491C614A02EB4111DF
:10096000085D0121FFF7B2FE781CC7B2601CC4B25B
:10097000102CF0DBBDE8F0812DE9F05F06460F4654
:1009800090461C46DDF828A04FF0000BE11704EB61
:100990005171C910B4EBC10105D12046E11704EB38
:1009A0005171CD1005E02046E11704EB5171C910DB
:1009B0004D1C3D4615E029463046FFF7BCFEB146CA
:1009C0000BE059460BF1010B1AF801000121FFF76A
:1009D0007DFE09F1010000F0FF09C145F1DB681C53
:1009E000C5B2A542E7DBBDE8F09F08B501210C20A8
:1009F00000F0B4FE4FF48070ADF8000010208DF8C8
:100A0000030001208DF802006946334800F0F0FB36
:100A10004FF46040ADF8000010208DF80300012075
:100A20008DF8020069462B4800F0E2FB4FF480711C
:100A3000294800F088FC4FF46041264800F083FC10
:100A40004FF48041234800F07EFC6420FFF7B3FDA3
:100A50004FF480411F4800F078FCC820FFF7ABFD41
:100A60004FF480411B4800F06EFC0021AE20FFF7E0
:100A70002DFE00210846FFF729FE00211020FFF778
:100A800025FE00214020FFF721FE00218120FFF7F5
:100A90001DFE0021CF20FFF719FE0021A120FFF746
:100AA00015FE0021C820FFF711FE0021A620FFF748
:100AB0000DFE0021A820FFF709FE00213F20FFF7CF
:100AC00005FE0021D320FFF701FE00210846FFF7B5
:100AD000FDFD07E0000C014000080140061B000876
:100AE000180000200021D520FFF7F0FD0021802014
:100AF000FFF7ECFD0021D920FFF7E8FD0021F120F0
:100B0000FFF7E4FD0021DA20FFF7E0FD00211220CD
:100B1000FFF7DCFD0021DB20FFF7D8FD002140209E
:100B2000FFF7D4FD00212020FFF7D0FD0021022097
:100B3000FFF7CCFD00218D20FFF7C8FD0021142018
:100B4000FFF7C4FD0021A420FFF7C0FD0021A6206F
:100B5000FFF7BCFD0021AF20FFF7B8FD0021AF205B
:100B6000FFF7B4FDFFF71AFE00210846FFF7E3FD8B
:100B700008BD000001460020FE4A106800F0380061
:100B8000084310607047FB49096821F00801F94AE1
:100B9000116011460968014311607047F549096801
:100BA00021F01001F34A11601146096801431160F8
:100BB0007047F148EF494860F04848607047EE4898
:100BC000EC494860ED4848607047EA48006940F0E9
:100BD0008000E84908617047E648006940F08000FD
:100BE000E449086170470420E249C96811F0010F27
:100BF00001D001200EE0DF49C96811F0040F01D0D7
:100C0000022007E0DB49C96811F0100F01D0032072
:100C100000E00420704700B502460423FFF7E3FF1D
:100C2000034603E0FFF7DFFF0346521E012B01D10D
:100C3000002AF7D102B90523184600BD30B5044695
:100C400004254FF43020FFF7E6FF0546042D17D1A9
:100C5000C848006940F00200C6490861084644617E
:100C6000006940F0400008614FF43020FFF7D3FFE7
:100C70000546C048006941F6FD710840BD4908615C
:100C8000284630BD10B504244FF43020FFF7C3FFD1
:100C90000446042C16D1B748006940F00400B54959
:100CA00008610846006940F0400008614FF43020B8
:100CB000FFF7B1FF0446AF48006941F6FB710840F9
:100CC000AC490861204610BD00B502460423FFF779
:100CD0008AFF034603E0FFF786FF0346521E012BFF
:100CE00001D1002AF7D102B90523184600BD10B57D
:100CF00004244FF43020FFF7E7FF0446042C16D1FC
:100D00009C48006940F004009A490861084600695F
:100D100040F0400008614FF43020FFF7D5FF044653
:100D20009448006941F6FB710840924908612046E9
:100D300010BD00208F49C96911F0020F01D00120B8
:100D400000E00020704730B5A5250424FFF7F1FF2F
:100D500000B100254FF43020FFF75DFF0446042C5E
:100D60003AD185488349886084488860084600698C
:100D700040F0200008610846006940F0400008612A
:100D80004FF43020FFF747FF0446042C1BD179486D
:100D9000006941F6DF71084076490861084600693C
:100DA00040F01000086176480580E002FFF733FF4D
:100DB0000446052C10D06F48006941F6EF710840D9
:100DC0006C49086108E0052C06D06A48006941F6C4
:100DD000EF71084067490861204630BD78B5064686
:100DE0000C46042500200090E802FFF714FF05469A
:100DF000042D24D15F48006940F001005D4908617D
:100E00003480E802FFF707FF0546042D10D1B01C1F
:100E10000090200C00990880E802FFF7FCFE0546D0
:100E20005448006941F6FE7108405249086106E0E5
:100E30005048006941F6FE7108404E490861284655
:100E400078BD70B504460D460426F002FFF7E3FEB8
:100E50000646042E11D14748006940F0010045497B
:100E600008612580F002FFF7D6FE0646414800697A
:100E700041F6FE7108403F490861304670BD70B5CB
:100E800005460E460424E002FFF7C5FE0446042C86
:100E900017D1394837498860384888600846006962
:100EA00040F0100008612E80E002FFF7B4FE044617
:100EB000052C06D02F48006941F6EF7108402D49F6
:100EC0000861204670BD2DE9F04304464FF6FF76D9
:100ED0003746B046B1460425E443E6B2C4F30727DB
:100EE000C4F307484FEA1469E802FFF794FE054689
:100EF000042D49D120481F49886020488860084651
:100F0000006940F010000861FF2E06D01C48083030
:100F10000680E802FFF77FFE0546042D08D1FF2F6B
:100F200006D017480A300780E802FFF774FE05462E
:100F3000042D0AD1B8F1FF0F07D011480C30A0F8EA
:100F40000080E802FFF767FE0546042D0AD1B9F1DB
:100F5000FF0F07D00A480E30A0F80090E802FFF714
:100F60005AFE0546052D0FD00248006941F6EF7183
:100F7000084007E00020024023016745AB89EFCD20
:100F800000F8FF1F664908612846BDE8F08330B5C8
:100F9000054604244FF43020FFF73DFE0446042CA0
:100FA00041D160485E4988605F48886008460069B2
:100FB00040F0200008610846006940F040000861E8
:100FC0004FF43020FFF727FE0446042C22D154486A
:100FD000006941F6DF71084051490861084600691F
:100FE00040F0100008611DB100205049088002E067
:100FF000A5204E4908804FF43020FFF70CFE044630
:10100000052C10D04648006941F6EF71084044496C
:10101000086108E0052C06D04148006941F6DF71FF
:1010200008403F490861204630BDF0B505460E46F0
:10103000174604243B483A4988603B488860E002F0
:10104000FFF7E9FD0446042C19D13548006940F04A
:1010500010003349086147F0F80030432843334912
:10106000891C0880E002FFF7D6FD0446052C06D057
:101070002B48006941F6EF71084029490861204674
:10108000F0BD2748C069800870472548006A70474E
:1010900000202349096811F0200F01D0012000E051
:1010A0000020704729B11E4A126902431C4B1A6185
:1010B00004E01B4A12698243194B1A6170470146CA
:1010C0000020012908D1164AD26912F0010F01D07F
:1010D000012008E0002006E0114AD2680A4201D04F
:1010E000012000E0002070470D49C86070470420CF
:1010F0000B49C96811F0010F01D001200EE0084929
:10110000C96811F0040F01D0022007E00449C96842
:1011100011F0100F01D0032000E004207047000000
:101120000020024023016745AB89EFCD00F8FF1F87
:1011300010B50446CA48844208D10121042000F0B9
:1011400027FB0021042000F023FB46E0C548844231
:1011500008D10121082000F01BFB0021082000F02D
:1011600017FB3AE0C048844208D10121102000F06A
:101170000FFB0021102000F00BFB2EE0BB48844247
:1011800008D10121202000F003FB0021202000F0E5
:10119000FFFA22E0B648844208D10121402000F045
:1011A000F7FA0021402000F0F3FA16E0B14884423B
:1011B00008D10121802000F0EBFA0021802000F00E
:1011C000E7FA0AE0AC48844207D10121801500F01B
:1011D000DFFA0021A01500F0DBFA10BD10B50121E7
:1011E000084600F0D5FA0021012000F0D1FA10BD28
:1011F0002DE9F041024600250026002000230024AE
:10120000002791F803C00CF00F0591F803C01CF003
:10121000100F03D091F802C04CEA050591F800C008
:10122000BCF1000F31D0146800202BE04FF0010C0E
:101230000CFA00F3B1F800C00CEA03069E4220D17C
:1012400083004FF00F0C0CFA03F7BC4305FA03FCC4
:101250004CEA040491F803C0BCF1280F06D14FF00A
:10126000010C0CFA00FCC2F814C00AE091F803C0AB
:10127000BCF1480F05D14FF0010C0CFA00FCC2F88C
:1012800010C0401C0828D1D31460B1F800C0BCF1D4
:10129000FF0F34DD546800202EE000F1080C4FF001
:1012A000010808FA0CF3B1F800C00CEA03069E42EC
:1012B00021D183004FF00F0C0CFA03F7BC4305FA61
:1012C00003FC4CEA040491F803C0BCF1280F05D1DB
:1012D00000F1080C08FA0CF8C2F8148091F803C069
:1012E000BCF1480F07D100F1080C4FF0010808FAD3
:1012F0000CF8C2F81080401C0828CED35460BDE81A
:10130000F0814FF6FF710180022181700421C170CC
:1013100070470246002093680B4201D0012000E094
:10132000002070470146886880B27047024600205E
:10133000D3680B4201D0012000E000207047014635
:10134000C86880B2704701617047416170470AB157
:10135000016100E041617047C16070474FF4803225
:101360000A438261816182618269826970470246B3
:101370000020424B18684FF68073184040EA021074
:1013800008433E4B186070473D49C8617047F0B54F
:101390000A46002300240021002500F00046B6F193
:1013A000004F02D1354EF16901E0344E7168C0F34F
:1013B000034583B200F44016B6F5401F08D121F072
:1013C00070612E4E766826F070662C4F7E6012E0BB
:1013D00000F48016B6F5801F06D1032606FA05F440
:1013E000A14341F0706106E0460D360103FA06F6AE
:1013F000B14341F0706122B1460D360103FA06F6A1
:10140000314300F00046B6F1004F02D11B4EF161AE
:1014100001E01A4E7160F0BD30B500228B071C0F41
:101420000F2303FA04F2154B08338C1053F82430C1
:101430009343124C08348D1044F8253023468C1009
:1014400053F824308C07240F00FA04F423430B4C88
:1014500008348D1044F8253030BD0A4908607047C3
:1014600000080140000C0140001001400014014040
:1014700000180140001C0140002001400000014014
:1014800000002042DC002042DD48006840F00100FE
:10149000DB49086008464068DA490840D849486096
:1014A00008460068D8490840D549086008460068E1
:1014B00020F4802008600846406820F4FE00486060
:1014C0004FF41F0088607047CD49096821F48031CE
:1014D000CB4A11601146096821F480211160B0F5F2
:1014E000803F03D0B0F5802F0ED106E0C4490968D3
:1014F00041F48031C24A116007E0C149096841F4F2
:10150000A021BF4A116000E000BF00BF704710B5C6
:1015100001460022002300204A11012A02D1B84CC2
:10152000236806E0022A02D1B54C236A01E0B44CDC
:10153000636A01F01F02012494401C4201D0012083
:1015400000E0002010BD38B50020009000240025E8
:1015500000BF3120FFF7DBFF05460098401C0090DC
:101560000098B0F5A06F01D0002DF2D03120FFF728
:10157000CEFF08B1012400E00024204638BD01461A
:1015800000209F4A106820F0F80040EAC100106077
:1015900070479E490860704702460020984B586883
:1015A00020F47C1042EA01031843954B58607047C1
:1015B00096490866704701460020914A506820F01D
:1015C00003000843506070478D48406800F00C00ED
:1015D0007047014600208A4A506820F0F000084316
:1015E0005060704701460020854A506820F4E06052
:1015F00008435060704701460020814A506820F43B
:10160000605040EAC1005060704729B17C4A527A6C
:1016100002437B4B5A7204E0794A527A8243784BF8
:101620005A7270477A490860704701460020744A30
:10163000506820F440400843506070470021754ACC
:1016400011706F4A82F82010012802D0042808D1B6
:1016500003E001216F4A117004E005216D4A117009
:1016600000E000BF00BF70476B49086070476449E5
:10167000096A0143624A1162704767494439086048
:10168000704730B500210022002400235C4D6D68B6
:1016900005F00C0121B1042905D0082923D105E06A
:1016A0005E4D056022E05D4D05601FE0544D6D68A4
:1016B00005F47012524D6D6805F48034022505EB77
:1016C00092421CB9564D554305600BE04C4D6D6878
:1016D00015F4003F03D0524D5543056002E04F4DD5
:1016E0005543056002E04D4D056000BF00BF444D0D
:1016F0006D6805F0F00109094A4D6B5C0568DD4035
:1017000045603F4D6D6805F4E061090A454D6B5C2D
:101710004568DD4085603A4D6D6805F46051C90A41
:10172000404D6B5C4568DD40C560354D6D6805F426
:101730004041890B3C4D6B5CC568B5FBF3F5056119
:1017400030BD29B12E4A526902432D4B5A6104E043
:101750002B4A526982432A4B5A61704729B1284A61
:1017600092690243264B9A6104E0254A92698243BA
:10177000234B9A61704729B1214AD2690243204B19
:10178000DA6104E01E4AD26982431D4BDA61704778
:1017900029B11B4AD2680243194BDA6004E0184AA7
:1017A000D2688243164BDA60704729B1144A126935
:1017B0000243134B1A6104E0114A12698243104B31
:1017C0001A61704714494039086070470F49C8646E
:1017D00070470B49C87170470948406A40F08070F3
:1017E00007494862704701460020054A92680A424C
:1017F00001D0012000E00020704701498872704745
:10180000001002400000FFF8FFFFF6FE0000424219
:10181000D8004242201002408004424200127A0066
:1018200000093D00581A0020681A00200948804726
:1018300009480047FEE7FEE7FEE7FEE7FEE7FEE7B2
:10184000FEE7FEE7FEE7FEE704480549054A064BCA
:1018500070470000F102000831010008D01A002092
:10186000D0200020D01C0020D01C002070477047E2
:101870007047754600F028F8AE46050069465346A5
:1018800020F00700854618B020B5FFF7DDFFBDE862
:1018900020404FF000064FF000074FF000084FF0D7
:1018A000000B21F00701AC46ACE8C009ACE8C00968
:1018B000ACE8C009ACE8C0098D4670470446AFF3F8
:1018C00000802046FEF79FFC004870476C1A0020FD
:1018D00001491820ABBEFEE7260002007047000059
:1018E000000000000000002F0000000007000700BB
:1018F00000147F147F1400242A7F2A1200626408D7
:101900001323003649552250000005030000000053
:101910001C224100000041221C000014083E081453
:101920000008083E0808000000A060000008080841
:101930000808000060600000002010080402003E5B
:101940005149453E0000427F4000004261514946F6
:10195000002141454B31001814127F1000274545E6
:101960004539003C4A4949300001710905030036F8
:101970004949493600064949291E0000363600000B
:101980000000563600000008142241000014141410
:10199000141400004122140800020151090600320B
:1019A0004959513E007C1211127C007F4949493649
:1019B000003E41414122007F4141221C007F4949B4
:1019C0004941007F09090901003E4149497A007FE8
:1019D0000808087F0000417F4100002040413F018E
:1019E000007F08142241007F40404040007F020CED
:1019F000027F007F0408107F003E4141413E007F8E
:101A000009090906003E4151215E007F0919294656
:101A10000046494949310001017F0101003F404032
:101A2000403F001F2040201F003F4038403F0063E0
:101A30001408146300070870080700615149454302
:101A400000007F41410000552A552A5500004141C0
:101A50007F000004020102040040404040400000BA
:101A600001020400002054545478007F4844443854
:101A700000384444442000384444487F00385454DB
:101A8000541800087E0901020018A4A4A47C007F59
:101A9000080404780000447D4000004080847D00FC
:101AA000007F102844000000417F4000007C0418A3
:101AB0000478007C0804047800384444443800FC6E
:101AC000242424180018242418FC007C080404088A
:101AD00000485454542000043F444020003C4040FF
:101AE000207C001C2040201C003C4030403C004436
:101AF00028102844001CA0A0A07C004464544C443E
:101B0000141414141414000000000000000000005D
:101B1000000000000000000000F8000000000000CD
:101B200000333000000000100C06100C060000000E
:101B300000000000000040C07840C0784000043F32
:101B400004043F040400007088FC08300000001802
:101B500020FF211E0000F008F000E0180000002126
:101B60001C031E211E0000F00888700000001E21CA
:101B700023241927211010160E0000000000000079
:101B8000000000000000000000E018040200000057
:101B900000071820400000020418E0000000004088
:101BA000201807000000404080F080404000020202
:101BB000010F01020200000000F00000000001011E
:101BC000011F01010100000000000000000080B0C2
:101BD0007000000000000000000000000000000194
:101BE00001010101010100000000000000000030BF
:101BF0003000000000000000000080601804006059
:101C000018060100000000E010080810E000000FB6
:101C1000102020100F00001010F80000000000201D
:101C2000203F202000000070080808887000003065
:101C3000282422213000003008888848300000180D
:101C4000202020110E000000C02010F80000000726
:101C50000424243F240000F808888808080000199C
:101C6000212020110E0000E0108888180000000FCD
:101C7000112020110E0000380808C83808000000A4
:101C8000003F000000000070880808887000001CF9
:101C9000222121221C0000E010080810E0000000B2
:101CA000312222110F00000000C0C000000000001F
:101CB0000030300000000000008000000000000044
:101CC000806000000000000080402010080000013B
:101CD00002040810200040404040404040000404FE
:101CE00004040404040000081020408000000020C8
:101CF000100804020100007048080808F000000005
:101D0000003036010000C030C828E810E000071895
:101D1000272423140B000000C038E0000000203C02
:101D200023020227382008F8888888700000203FA6
:101D3000202020110E00C0300808080838000718BD
:101D400020202010080008F808080810E000203FB4
:101D5000202020100F0008F88888E8081000203F95
:101D600020202320180008F88888E8081000203F69
:101D7000200003000000C0300808083800000718E1
:101D80002020221E020008F808000008F808203F62
:101D9000210101213F20000808F808080000002068
:101DA000203F2020000000000808F8080800C0803C
:101DB00080807F00000008F888C028180800203FB5
:101DC00020012638200008F8080000000000203F0D
:101DD00020202020300008F8F800F8F80800203F04
:101DE000003F003F200008F830C00008F808203FFE
:101DF000200007183F00E01008080810E0000F104E
:101E0000202020100F0008F808080808F000203FE4
:101E1000210101010000E01008080810E0000F187F
:101E2000242438504F0008F8888888887000203FA4
:101E30002000030C302000708808080838000038A3
:101E4000202121221C00180808F8080818000000AA
:101E5000203F2000000008F808000008F808001FD4
:101E6000202020201F000878880000C838080000C3
:101E700007380E010000F80800F80008F800033CDD
:101E80000700073C030008186880806818082030A5
:101E90002C03032C30200838C800C8380800000084
:101EA000203F2000000010080808C838080020382B
:101EB000262120201800000000FE0202020000007F
:101EC000007F40404000000C30C0000000000000D7
:101ED00000010638C00000020202FE0000000040BF
:101EE00040407F00000000000402020204000000E5
:101EF00000000000000000000000000000008080E2
:101F000080808080808000020204000000000000C9
:101F100000000000000000008080808000000019A8
:101F2000242222223F2008F8008080000000003F89
:101F3000112020110E000000008080800000000EA3
:101F4000112020201100000000808088F800000E81
:101F5000112020103F200000808080800000001FA2
:101F6000222222221300008080F088888818002016
:101F7000203F202000000000808080808000006BD7
:101F800094949493600008F8008080800000203FC3
:101F9000210000203F2000809898000000000020D1
:101FA000203F20200000000000809898000000C022
:101FB0008080807F000008F8000080808000203F43
:101FC00024022D302000000808F800000000002046
:101FD000203F202000008080808080808000203F83
:101FE00020003F20003F8080008080800000203F54
:101FF000210000203F200000808080800000001F22
:10200000202020201F00808000808000000080FFB2
:10201000A12020110E000000008080808000000EB2
:10202000112020A0FF808080800080808000202000
:102030003F2120000100000080808080800000336C
:10204000242424241900008080E080800000000007
:10205000001F202000008080000000808000001F02
:10206000202020103F2080808000008080800001A0
:102070000E300806010080800080008080800F30D4
:102080000C030C300F000080800080808000002056
:10209000312E0E3120008080800000808080808181
:1020A0008E701806010000808080808080000021F2
:1020B000302C2221300000000000807C0202000051
:1020C0000000003F404000000000FF000000000052
:1020D0000000FF0000000002027C800000000040C1
:1020E000403F00000000000601010202040400005D
:1020F000000000000000000018210008000000207F
:102100006C1A00006C010008B42B00086C1A002047
:1021100064060000D0010008500600A24A04000135
:10212000200901020304060708090C000E112424EB
:10213000A4FEA3220022CC0000FF00012008080614
:1021400001FF00010401000511FF02020222000D3F
:1021500011E09C848484F48282838280801F000E3C
:10216000122010080640807F00000204083062132D
:10217000FE9201410501115E000E11403801003C44
:102180004040424C4040700541134042BA000A10A2
:10219000E2222A2AF22A2622E09E000F1080403FE7
:1021A0004080FF898989BF89A9C9BFA11009101082
:1021B000D0FF901000FEDC01127F1404000403180D
:1021C000100483601F8B0005103F4040786013802F
:1021D0009EBA0009109EE0809EB2D2929E600011CD
:1021E000140808F4949292F10001F2929494F80881
:1021F0000001000415C03FC01A1007804020100CD9
:102200000389000610030C102040C0040C15402068
:10221000D04C4344C8102000F8C2340A3F40444820
:10222000474070000F86F540040F10445465C664A3
:10223000544400FC4444C44240BF2408124A827FF4
:10224000020A920201125F000E1120A4A4A4FFA4AE
:10225000B42884708F0808E0000E11040A49887EB3
:102260000504844020130C33C01009040424B4ACCA
:10227000A4A5A647080512B46404042123FF0A019B
:102280000404134A8A7FA0080E10244484649C40EE
:10229000300FC8080828187F197E040A1301824CE1
:1022A0002018060106184039411004FC0402040BF2
:1022B0001204FC81040D10201F20404F4442407F37
:1022C00042444320100B8060F80704E4242424FFD8
:1022D000040212E4C00C0D12FF0080814529112F69
:1022E00041418181210313FE220141050912001B96
:1022F000601F9B040712027F020242820131C0006C
:102300000A15504EC8487FC8484840C0040A1050BB
:102310004C4340404F50505CE00C0E111010FF1029
:102320000082864A52A2524A86C1031176100801E1
:102330000010121212FF040E1210210410053000BA
:10234000FF20011105040411222C20E004081502CD
:1023500001FF8040300E80140A0004848444245419
:102360008F14C80611843F7C0441390000040C041A
:1023700014040931C003180414E4AF400612AF7FFF
:102380003DC0030C0A12894B2A1A0E1A2A4B8800E8
:10239000042290012507000411101116E14C0820B9
:1023A00060203F10101080030E12F8C1041D3A0384
:1023B0001004444546050B12447C3F331807222184
:1023C0002009116010044044C41D3240800B1110DC
:1023D000F0C024063C131014B8401E40CB04011179
:1023E0007E1C04F80C0B79031F40307F0302120897
:1023F0009F137F21012DF903021443404C05FC2457
:1024000024FC84050D138005001015003F11113FB9
:1024100000FF4020030C1422414040100644545455
:10242000547F040215444008091500FF1515155581
:10243000957FC00C091400F11610101814F3030551
:102440001C0B3F9048211907013F4141C60401146C
:10245000401E2081030C0612FE2223222043051F6A
:102460007F20E0050C0612424243424261061DF8FD
:102470000531FD1D84060D12DF061596171F105B32
:102480000C0611080804FF04A0041E80A105100911
:102490001E02028202023E40010D11A0060C0C1128
:1024A0002222120A06FF060A12222260051D420697
:1024B0001006BEAAAAABAA010E13BE3F070C0E104F
:1024C000202FAA6A2A2A2F2A2AEA2A2F20600333D9
:1024D0008082010C0614E2A2928A86810729650D8A
:1024E00012FA0565A11DB80419031D7F0407132303
:1024F000221F3E027B0431080511210C101320100D
:10250000FF555555F70052565AF35A5612E1073205
:102510002A010A13AA5F2D790317900E2316C221F0
:102520000F130E008004040B102021110905FF0574
:10253000091121001C051060028CBE071EF2BE07A7
:102540000E12F8A1060C0D1204047E018047300F14
:102550001027004700071C072030AC6320188706AF
:10256000071204FCDF1C0500226722FD0425DB06A0
:10257000137FE03C0500C0301FB9030E13FFDE04DB
:102580003C060081402112C007219C0E1103E0038C
:102590000C0E1088C43300FE12D252527F5151D11A
:1025A00080041E017C032006300F00FF4A010E1537
:1025B000FF00060C0B1408C808F8090EF808488834
:1025C00000060C0B135148464148504F40404140D3
:1025D000093C07807E22223E00080801123F0C0DB4
:1025E0001122415F49495F4042425F4242BF060CAF
:1025F0000D110222DA0610D2565A535A56D240050D
:10260000080F13FF0810080710171515FD151517EB
:1026100010002C0880FC96A5FC403E4303091300E3
:102620000C0B15807F0488FF008F51215FC0071CB1
:1026300006202222A26242070E152000073C044415
:102640004E45A4050E104C00071DBB032E72FC095D
:1026500011080B114232E04F808181094D7F090D35
:1026600012C00747C038DE1DEA050D12DE03011F48
:1026700040013F012007E0F0F0E0C0C0060D15E288
:10268000030C09130103070F0F0703011B042E3C62
:10269000FA061C0520108F78BE090D1140060C0D9E
:1026A00013020602FF010104422118468180062D13
:1026B00001091DBB062C04D0FFD026070911C00C50
:1026C0000D1200FF1008040B08FF080B0408410856
:1026D0005E827F050D14000C2D790C0C09120C3450
:1026E000040444847F0480053E1041042D7F080CBF
:1026F0000411101196BF072F0444C1082D7E0A1D36
:10270000BF060111E0238070A00C0910209088877B
:102710004404948C00092C0580601807E3081DA46C
:10272000070C058F404444FF400C3D000A300580F3
:102730008888FF030E1580C00A3D010A0E135FC092
:102740000439210C0420E21CE0800C0E123000033E
:102750000D3E80034D01051D5D041342C2040D11A1
:10276000A0034E01D6050D1BC3060D3A400D0D3DCD
:1027700080090C0A1440484848FF484800C4DF0953
:102780002DC00B1B207F3D1D7E0B0D13800B1D21CB
:102790000E1E28BB0C0C0711FF08088868081F0EC6
:1027A0001C04212111FD061C0403FF03FF060C0479
:1027B00010112121A0081F0C05800733057F060F8B
:1027C00012140C000F040C501115F5951515355504
:1027D00055B591001C05003E22E23D063DC00C0FA0
:1027E0001122E220083C083F201F1111007F000B3E
:1027F0000F124740E0031C04F484D4000E0C0413B1
:10280000D484F481071D9A050C0C4F123A1613124A
:102810001A3242827E0040044D00080C081180905C
:1028200090FF90494A410D6D00080D1641043D008E
:102830000E0C0614645CC4644480082D000E0C0960
:10284000132062221F1212004F86093C0808884894
:1028500028180FE8630A091100200408080901324A
:10286000FF060911211C0420180A3C0A330AFE063F
:102870000D12010F0D1E60112DC0031DC0051F900C
:102880007F040D0D12C1052D400E1C054844424128
:102890003D080E114240071DBF0D1C04FC848467D7
:1028A0000904051284E41C84601F602020094E0482
:1028B000C7030F13010600081C071020A4ACB5A61F
:1028C00007100D11E00A0C0F1210301F0888804FFE
:1028D0003A0A0A7A8A8F80A60419151FFF00011090
:1028E0000C0411041464400E100640407E42420362
:1028F00021040E117EA00B0D3E400A0D3E40102F0C
:10290000100C3E100C081125262414141404C003C6
:102910001D18041B4F29010805120F294989002D94
:1029200000070C0B109020984828090E2848A80191
:10293000112C050242817F250D45050D11A00C3F8C
:10294000504EC1040F16484040121D98090C051541
:10295000FF12221E40121C0400FCF87E080D19D83C
:10296000080C04167F3F1F7C085D00042C0584E4DE
:102970003C27840C0E12E4E007393A2D02030F14B1
:102980004989C40C3D3B064E7E3E060E1840C006EB
:102990001DBD130E11403F0E1C05000414D4BC0EC7
:1029A0002354DF050C0416D4140480113203050DE2
:1029B0001380111C0544445464FF0F1D44130E146E
:1029C00044600743FF490105135E400620104C4751
:1029D00054010E14D4FF127DCB120C04110F3040A1
:1029E000A1062DB7121D00082D01080D1300082C9B
:1029F000050F04042F05130C0611FF010608102112
:102A00000B1C040202F2DE114EF2040B0D12E01553
:102A100021420F16040F440E3D40091C062898273A
:102A2000C43C42040F14121440090C0B4F98640369
:102A300028C621C01126C880091C070808E8292ECD
:102A4000283F050C0512C80C0BE84105193E393B1F
:102A50000915BF0D4140091D02113F2424400F0DEF
:102A600011A00F3D00121D7E1021010D17800529B8
:102A7000230C0616C949497F8080141C045F484412
:102A80007F050F10455840042D38064C0488780FF8
:102A90003F060D1220061E10FC0D1101227F050DB0
:102AA00011A0101C07C8B88FE88888C6080C04124B
:102AB000E85F4841141C04081808F8100C091200BB
:102AC000020B1222D20A06A006157B021838802EAD
:102AD0000800144241010E15FF3F0C0C0A140004BB
:102AE00074545556545474FF150C0C120003010510
:102AF00045857D0505050182032E0015030F14FF92
:102B0000409E0F5E00B90F3DBD0F0D12A0111D7E3E
:102B1000040C06165C44C400BE81114C0A02017FFD
:102B200010103F020A1204110D12C1031C04E82404
:102B3000277E140C0411A4B4ACBF061D80091DBE71
:102B40000F2D3B184D85170D12FF152C045A86408A
:102B5000A2150C04124C50206010040D11FF040843
:102B600007404458414E605847C01C0480908C7FF9
:102B7000191FF58684190E128440031DA1180C0933
:102B8000138446492810102C23A0102DC0120C08C5
:102B900014504844C3444850E00E2DE1043F4444DF
:102BA000C0090D173F0C1D501A6D541A0005000284
:042BB000040608000F
:040000050800182DAA
:00000001FF
