:020000040800F2
:1000000090060020FD110008A9030008AB030008BA
:10001000AF030008B3030008B703000800000000A6
:10002000000000000000000000000000BB0300080A
:10003000BD03000800000000BF030008C103000862
:1000400017120008171200081712000817120008EC
:1000500017120008171200081712000817120008DC
:1000600017120008171200081712000817120008CC
:1000700017120008171200081712000817120008BC
:1000800017120008171200081712000817120008AC
:10009000171200081712000817120008171200089C
:1000A000171200081712000817120008171200088C
:1000B000171200081712000817120008171200087C
:1000C000171200081712000817120008171200086C
:1000D000171200081712000817120008171200085C
:1000E000171200081712000817120008171200084C
:1000F000171200081712000817120008171200083C
:10010000171200081712000817120008171200082B
:10011000171200081712000817120008171200081B
:10012000171200081712000817120008171200080B
:1001300000F002F800F03AF80AA090E8000C8244BF
:100140008344AAF10107DA4501D100F02FF8AFF29C
:10015000090EBAE80F0013F0010F18BFFB1A43F0A5
:10016000010318474C1100006C110000103A24BF25
:1001700078C878C1FAD8520724BF30C830C144BF0C
:1001800004680C607047000000230024002500264E
:10019000103A28BF78C1FBD8520728BF30C148BFEA
:1001A0000B6070471FB51FBD10B510BD01F049F8B9
:1001B0001146FFF7F7FF00F005F901F067F803B407
:1001C000FFF7F2FF03BC01F06BF800000CB5002054
:1001D000019000906B48006840F4803069490860E5
:1001E00000BF6848006800F4003000900198401C8F
:1001F0000190009818B90198B0F5A06FF1D161484D
:10020000006810F4003F02D00120009001E00020BF
:1002100000900098012842D15B48006840F010002F
:10022000594908600846006820F003000860084645
:10023000006840F002000860524840685149486038
:100240000846406848600846406840F4806048605E
:100250000846406820F47C1048600846406840F436
:10026000E81048600846006840F08070086000BFF1
:100270004448006810F0007FFAD04248406820F0FF
:100280000300404948600846406840F0020048606A
:1002900000BF3C48406800F00C000828F9D10CBDB4
:1002A00010B5FFF793FF10BD10B53648006840F059
:1002B0000100344908600846406834490840314923
:1002C000486008460068324908402E4908600846E0
:1002D000006820F4802008600846406820F4FE0092
:1002E00048604FF41F008860FFF7DAFF4FF00060AE
:1002F0002849086010BD10B5002100200022214BC4
:100300005B6803F00C0121B1042906D0082928D12B
:1003100007E0214B214C236027E01F4B1F4C23603B
:1003200023E0184B5B6803F47010164B5B6803F412
:100330008032022303EB904022B9194B4343174C00
:1003400023600DE00F4B5B6813F4003F04D0144BA7
:100350004343124C236003E00F4B43430F4C236095
:1003600003E00D4B0D4C236000BF00BF054B5B68E5
:10037000C3F303130B4CE15C084B1B68CB40074CE9
:10038000236010BD00100240002002400000FFF872
:10039000FFFFF6FE08ED00E000127A0000000020EA
:1003A00000093D0004000020704700BFFEE700BFC9
:1003B000FEE700BFFEE700BFFEE7704770477047EB
:1003C0007047000000F08EF8482000F017F800F0A9
:1003D0006FF80FE01021084800F09DFC4FF44870C2
:1003E00000F027F81021044800F097FC4FF4487003
:1003F00000F01FF8EEE70000000C01404FF0E02194
:10040000096921F004014FF0E0221161C21700EBED
:100410005272D210244B1A701946097801EB41022E
:10042000C2EBC1114FF6FF7202EAC1011F4A1180EF
:10043000704701461D4A12884A434FF0E0235A6133
:1004400000229A6101221A6100BF4FF0E022106978
:1004500010F0010F02D010F4803FF6D000224FF0D0
:10046000E0231A619A61704701460F4A12784A43A5
:100470004FF0E0235A6100229A6101221A6100BF05
:100480004FF0E022106910F0010F02D010F4803F0D
:10049000F6D000224FF0E0231A619A61704700E025
:1004A000401E0028FCD170471400002016000020D8
:1004B00008B50121092000F039FE0121074800F0AC
:1004C0004EFC1020ADF800008DF8030002208DF8DE
:1004D00002006946024800F073FB08BD00043000CA
:1004E000000C014010B54FF4803000F0D5FC00F056
:1004F00012FD0446012C24D1002000F052FDA00280
:1005000000F058FD002000F05EFD022000F01AF817
:10051000102000F02BF84FF4E011200400F024FD2F
:10052000012000F02DFD00BF392000F0D8FC00288C
:10053000FAD0022000F027FD00BF00F02DFD0828B2
:10054000FBD110BD01460020FE4A106800F03800C3
:10055000084310607047FB49096821F00801F94A17
:10056000116011460968014311607047F549096837
:1005700021F01001F34A116011460968014311602E
:100580007047F148EF494860F04848607047EE48CE
:10059000EC494860ED4848607047EA48006940F01F
:1005A0008000E84908617047E648006940F0800033
:1005B000E449086170470420E249C96811F0010F5D
:1005C00001D001200EE0DF49C96811F0040F01D00D
:1005D000022007E0DB49C96811F0100F01D00320A9
:1005E00000E00420704700B502460423FFF7E3FF54
:1005F000034603E0FFF7DFFF0346521E012B01D144
:10060000002AF7D102B90523184600BD30B50446CB
:1006100004254FF43020FFF7E6FF0546042D17D1DF
:10062000C848006940F00200C649086108464461B4
:10063000006940F0400008614FF43020FFF7D3FF1D
:100640000546C048006941F6FD710840BD49086192
:10065000284630BD10B504244FF43020FFF7C3FF07
:100660000446042C16D1B748006940F00400B5498F
:1006700008610846006940F0400008614FF43020EE
:10068000FFF7B1FF0446AF48006941F6FB7108402F
:10069000AC490861204610BD00B502460423FFF7AF
:1006A0008AFF034603E0FFF786FF0346521E012B35
:1006B00001D1002AF7D102B90523184600BD10B5B3
:1006C00004244FF43020FFF7E7FF0446042C16D132
:1006D0009C48006940F004009A4908610846006996
:1006E00040F0400008614FF43020FFF7D5FF04468A
:1006F0009448006941F6FB71084092490861204620
:1007000010BD00208F49C96911F0020F01D00120EE
:1007100000E00020704730B5A5250424FFF7F1FF65
:1007200000B100254FF43020FFF75DFF0446042C94
:100730003AD18548834988608448886008460069C2
:1007400040F0200008610846006940F04000086160
:100750004FF43020FFF747FF0446042C1BD17948A3
:10076000006941F6DF710840764908610846006972
:1007700040F01000086176480580E002FFF733FF83
:100780000446052C10D06F48006941F6EF7108400F
:100790006C49086108E0052C06D06A48006941F6FA
:1007A000EF71084067490861204630BD78B50646BC
:1007B0000C46042500200090E802FFF714FF0546D0
:1007C000042D24D15F48006940F001005D490861B3
:1007D0003480E802FFF707FF0546042D10D1B01C56
:1007E0000090200C00990880E802FFF7FCFE054607
:1007F0005448006941F6FE7108405249086106E01C
:100800005048006941F6FE7108404E49086128468B
:1008100078BD70B504460D460426F002FFF7E3FEEE
:100820000646042E11D14748006940F001004549B1
:1008300008612580F002FFF7D6FE064641480069B0
:1008400041F6FE7108403F490861304670BD70B501
:1008500005460E460424E002FFF7C5FE0446042CBC
:1008600017D1394837498860384888600846006998
:1008700040F0100008612E80E002FFF7B4FE04464D
:10088000052C06D02F48006941F6EF7108402D492C
:100890000861204670BD2DE9F04304464FF6FF760F
:1008A0003746B046B1460425E443E6B2C4F3072711
:1008B000C4F307484FEA1469E802FFF794FE0546BF
:1008C000042D49D120481F49886020488860084687
:1008D000006940F010000861FF2E06D01C48083067
:1008E0000680E802FFF77FFE0546042D08D1FF2FA2
:1008F00006D017480A300780E802FFF774FE054665
:10090000042D0AD1B8F1FF0F07D011480C30A0F820
:100910000080E802FFF767FE0546042D0AD1B9F111
:10092000FF0F07D00A480E30A0F80090E802FFF74A
:100930005AFE0546052D0FD00248006941F6EF71B9
:10094000084007E00020024023016745AB89EFCD56
:1009500000F8FF1F664908612846BDE8F08330B5FE
:10096000054604244FF43020FFF73DFE0446042CD6
:1009700041D160485E4988605F48886008460069E8
:1009800040F0200008610846006940F0400008611E
:100990004FF43020FFF727FE0446042C22D15448A0
:1009A000006941F6DF710840514908610846006955
:1009B00040F0100008611DB100205049088002E09D
:1009C000A5204E4908804FF43020FFF70CFE044666
:1009D000052C10D04648006941F6EF7108404449A3
:1009E000086108E0052C06D04148006941F6DF7136
:1009F00008403F490861204630BDF0B505460E4627
:100A0000174604243B483A4988603B488860E00226
:100A1000FFF7E9FD0446042C19D13548006940F080
:100A200010003349086147F0F80030432843334948
:100A3000891C0880E002FFF7D6FD0446052C06D08D
:100A40002B48006941F6EF710840294908612046AA
:100A5000F0BD2748C069800870472548006A704784
:100A600000202349096811F0200F01D0012000E087
:100A70000020704729B11E4A126902431C4B1A61BB
:100A800004E01B4A12698243194B1A617047014600
:100A90000020012908D1164AD26912F0010F01D0B5
:100AA000012008E0002006E0114AD2680A4201D085
:100AB000012000E0002070470D49C8607047042005
:100AC0000B49C96811F0010F01D001200EE008495F
:100AD000C96811F0040F01D0022007E00449C96879
:100AE00011F0100F01D0032000E004207047000037
:100AF0000020024023016745AB89EFCD00F8FF1FBE
:100B000010B50446CA48844208D10121042000F0EF
:100B100027FB0021042000F023FB46E0C548844267
:100B200008D10121082000F01BFB0021082000F063
:100B300017FB3AE0C048844208D10121102000F0A0
:100B40000FFB0021102000F00BFB2EE0BB4884427D
:100B500008D10121202000F003FB0021202000F01B
:100B6000FFFA22E0B648844208D10121402000F07B
:100B7000F7FA0021402000F0F3FA16E0B148844271
:100B800008D10121802000F0EBFA0021802000F044
:100B9000E7FA0AE0AC48844207D10121801500F051
:100BA000DFFA0021A01500F0DBFA10BD10B501211D
:100BB000084600F0D5FA0021012000F0D1FA10BD5E
:100BC0002DE9F041024600250026002000230024E4
:100BD000002791F803C00CF00F0591F803C01CF03A
:100BE000100F03D091F802C04CEA050591F800C03F
:100BF000BCF1000F31D0146800202BE04FF0010C45
:100C00000CFA00F3B1F800C00CEA03069E4220D1B2
:100C100083004FF00F0C0CFA03F7BC4305FA03FCFA
:100C20004CEA040491F803C0BCF1280F06D14FF040
:100C3000010C0CFA00FCC2F814C00AE091F803C0E1
:100C4000BCF1480F05D14FF0010C0CFA00FCC2F8C2
:100C500010C0401C0828D1D31460B1F800C0BCF10A
:100C6000FF0F34DD546800202EE000F1080C4FF037
:100C7000010808FA0CF3B1F800C00CEA03069E4222
:100C800021D183004FF00F0C0CFA03F7BC4305FA97
:100C900003FC4CEA040491F803C0BCF1280F05D111
:100CA00000F1080C08FA0CF8C2F8148091F803C09F
:100CB000BCF1480F07D100F1080C4FF0010808FA09
:100CC0000CF8C2F81080401C0828CED35460BDE850
:100CD000F0814FF6FF710180022181700421C17003
:100CE00070470246002093680B4201D0012000E0CB
:100CF000002070470146886880B270470246002095
:100D0000D3680B4201D0012000E00020704701466B
:100D1000C86880B2704701617047416170470AB18D
:100D2000016100E041617047C16070474FF480325B
:100D30000A438261816182618269826970470246E9
:100D40000020424B18684FF68073184040EA0210AA
:100D500008433E4B186070473D49C8617047F0B585
:100D60000A46002300240021002500F00046B6F1C9
:100D7000004F02D1354EF16901E0344E7168C0F385
:100D8000034583B200F44016B6F5401F08D121F0A8
:100D900070612E4E766826F070662C4F7E6012E0F1
:100DA00000F48016B6F5801F06D1032606FA05F476
:100DB000A14341F0706106E0460D360103FA06F6E4
:100DC000B14341F0706122B1460D360103FA06F6D7
:100DD000314300F00046B6F1004F02D11B4EF161E5
:100DE00001E01A4E7160F0BD30B500228B071C0F78
:100DF0000F2303FA04F2154B08338C1053F82430F8
:100E00009343124C08348D1044F8253023468C103F
:100E100053F824308C07240F00FA04F423430B4CBE
:100E200008348D1044F8253030BD0A4908607047F9
:100E300000080140000C0140001001400014014076
:100E400000180140001C014000200140000001404A
:100E500000002042DC002042DD48006840F0010034
:100E6000DB49086008464068DA490840D8494860CC
:100E700008460068D8490840D54908600846006817
:100E800020F4802008600846406820F4FE00486096
:100E90004FF41F0088607047CD49096821F4803104
:100EA000CB4A11601146096821F480211160B0F528
:100EB000803F03D0B0F5802F0ED106E0C449096809
:100EC00041F48031C24A116007E0C149096841F428
:100ED000A021BF4A116000E000BF00BF704710B5FD
:100EE00001460022002300204A11012A02D1B84CF9
:100EF000236806E0022A02D1B54C236A01E0B44C13
:100F0000636A01F01F02012494401C4201D00120B9
:100F100000E0002010BD38B500200090002400251E
:100F200000BF3120FFF7DBFF05460098401C009012
:100F30000098B0F5A06F01D0002DF2D03120FFF75E
:100F4000CEFF08B1012400E00024204638BD014650
:100F500000209F4A106820F0F80040EAC1001060AD
:100F600070479E490860704702460020984B5868B9
:100F700020F47C1042EA01031843954B58607047F7
:100F800096490866704701460020914A506820F053
:100F900003000843506070478D48406800F00C0023
:100FA0007047014600208A4A506820F0F00008434C
:100FB0005060704701460020854A506820F4E06088
:100FC00008435060704701460020814A506820F471
:100FD000605040EAC1005060704729B17C4A527AA3
:100FE00002437B4B5A7204E0794A527A8243784B2F
:100FF0005A7270477A490860704701460020744A67
:10100000506820F440400843506070470021754A02
:1010100011706F4A82F82010012802D0042808D1EC
:1010200003E001216F4A117004E005216D4A11703F
:1010300000E000BF00BF70476B490860704764491B
:10104000096A0143624A116270476749443908607E
:10105000704730B500210022002400235C4D6D68EC
:1010600005F00C0121B1042905D0082923D105E0A0
:101070005E4D056022E05D4D05601FE0544D6D68DA
:1010800005F47012524D6D6805F48034022505EBAD
:1010900092421CB9564D554305600BE04C4D6D68AE
:1010A00015F4003F03D0524D5543056002E04F4D0B
:1010B0005543056002E04D4D056000BF00BF444D43
:1010C0006D6805F0F00109094A4D6B5C0568DD406B
:1010D00045603F4D6D6805F4E061090A454D6B5C64
:1010E0004568DD4085603A4D6D6805F46051C90A78
:1010F000404D6B5C4568DD40C560354D6D6805F45D
:101100004041890B3C4D6B5CC568B5FBF3F505614F
:1011100030BD29B12E4A526902432D4B5A6104E079
:101120002B4A526982432A4B5A61704729B1284A97
:1011300092690243264B9A6104E0254A92698243F0
:10114000234B9A61704729B1214AD2690243204B4F
:10115000DA6104E01E4AD26982431D4BDA617047AE
:1011600029B11B4AD2680243194BDA6004E0184ADD
:10117000D2688243164BDA60704729B1144A12696B
:101180000243134B1A6104E0114A12698243104B67
:101190001A61704714494039086070470F49C864A4
:1011A00070470B49C87170470948406A40F0807029
:1011B00007494862704701460020054A92680A4282
:1011C00001D0012000E0002070470149887270477B
:1011D000001002400000FFF8FFFFF6FE0000424250
:1011E000D8004242201002408004424200127A009D
:1011F00000093D0018000020280000200948804711
:1012000009480047FEE7FEE7FEE7FEE7FEE7FEE7E8
:10121000FEE7FEE7FEE7FEE704480549054A064B00
:1012200070470000A902000831010008900000206A
:101230009006002090020020900200207047704726
:101240007047754600F028F8AE46050069465346DB
:1012500020F00700854618B020B5FFF7DDFFBDE898
:1012600020404FF000064FF000074FF000084FF00D
:10127000000B21F00701AC46ACE8C009ACE8C0099E
:10128000ACE8C009ACE8C0098D4670470446AFF32E
:1012900000802046FEF793FF004870472C00002096
:1012A00001491820ABBEFEE726000200704700008F
:1012B000D0120008000000202C0000006C01000883
:1012C000FC1200082C0000206406000088010008C1
:1012D00000A24A0400000000000000000102030414
:1012E00006070809000000000000000001020304D6
:0C12F000010203040607080902040608B6
:04000005080011FDE1
:00000001FF
